:100000000C9434000C9449000C9449000C94490061
:100010000C9449000C9449000C9449000C9449003C
:100020000C9449000C9449000C9449000C9449002C
:100030000C9449000C9449000C9449000C9449001C
:100040000C9449000C9449000C9449000C9449000C
:100050000C9449000C9449000C9449000C944900FC
:100060000C9449000C94490011241FBECFEFD8E036
:10007000DEBFCDBF11E0A0E0B1E0E6E8F1E002C0F4
:1000800005900D92A630B107D9F70E949C000C9400
:10009000C1000C940000CF93DF93CDB7DEB7289753
:1000A0000FB6F894DEBF0FBECDBF27E631E0DC010E
:1000B0000E94AB0069837A838B839C831D821E829E
:1000C0001F8218864D815E816F81788589819A8132
:1000D000AB81BC81481759076A077B0748F028960F
:1000E0000FB6F894DEBF0FBECDBFDF91CF9108955C
:1000F0008D819E81AF81B8850196A11DB11D8D8333
:100100009E83AF83B887DECFE0910201F0910301B7
:100110008081806280830895E0910401F09105015F
:100120008081806280830895E0910401F09105014F
:1001300080818F7D808308950E94840084E690E012
:100140000E944B000E948C0084E690E00E944B00CD
:100150000E949400F3CF0E94B200B7FF0895821B63
:10016000930B0895A29FB001B39FC001A39F700D90
:10017000811D1124911DB29F700D811D1124911DAF
:060180000895F894FFCF82
:0601860023002400250007
:00000001FF
