:100000000C9434000C9449000C9449000C94490061
:100010000C9449000C9449000C9449000C9449003C
:100020000C9449000C9449000C9449000C9449002C
:100030000C9449000C9449000C9449000C9449001C
:100040000C9449000C9449000C9449000C9449000C
:100050000C9449000C9449000C9449000C944900FC
:100060000C9449000C94490011241FBECFEFD8E036
:10007000DEBFCDBF11E0A0E0B1E0ECE5FBE002C0E7
:1000800005900D92A430B107D9F70E943A030C9461
:10009000AC050C940000853B08F084EB282F30E081
:1000A000A0EDB7E00E94CC0324EB30E040E050E04C
:1000B0000E94AA03C9018053984F0C948C02E091CE
:1000C0000001F0910101158287E6848386E2828334
:1000D00088E181830895E0910001F0910101908110
:1000E00095FFFDCF86830895EF92FF920F931F93A4
:1000F000CF93DF9300D0CDB7DEB77C018B011A829E
:10010000198289819A81801791074CF00F900F9086
:10011000DF91CF911F910F91FF90EF900895E981AA
:10012000FA81EE0DFF1D80810E946B0089819A810A
:1001300001969A838983E5CFE0910001F091010156
:10014000808187FFFDCF8681089564E084E290E09E
:100150000C94D9022F923F924F925F926F927F92AE
:100160008F929F92AF92BF92CF92DF92EF92FF92C7
:100170000F931F93CF93DF93CDB7DEB76C970FB676
:10018000F894DEBF0FBECDBF9A8789877C876B87C7
:1001900089859A85892B09F05DC06B857C85072E42
:1001A000000C880B990B0E948A044B015C0120E033
:1001B00030E04AE755E40E943F056B017C0120E0F6
:1001C00030E040E85FE30E94E20387FD40C020E0AA
:1001D0003FEF4FE757E4C701B6010E943A051816F2
:1001E00074F520E030E040E251E4C501B4010E9422
:1001F0003F050E94590420E931E061157105C9F4F9
:100200006C960FB6F894DEBF0FBECDBFDF91CF91D5
:100210001F910F91FF90EF90DF90CF90BF90AF9024
:100220009F908F907F906F905F904F903F902F9016
:100230000895C9010197F1F761507109DECFC70137
:10024000B6010E945904CB010197F1F7D9CF61E0C3
:1002500070E0F9CF29853A85032E000C440B550B2D
:1002600060E271EA87E090E00E94AA03298B3A8B52
:100270004B8B5C8BAB85BC8528EE33E00E94DB03A7
:100280006D837E838F83988719821A821B821C82DA
:1002900029893A894B895C89220F331F441F551FD6
:1002A000298F3A8F4B8F5C8F90E9292E332433941A
:1002B00049815A816B817C818D819E81AF81B88516
:1002C000481759076A077B0708F09ACF64E085E270
:1002D00090E00E94D90269897A898B899C890E9461
:1002E00088044B015C012BEA3AEA4AEA50E40E9496
:1002F0003F056B017C0120E030E040E850E4C5019F
:10030000B4010E943F052B013C0120E030E040E8B1
:100310005FE3C701B6010E94E20387FDC0C020E091
:100320003FEF4FE757E4C301B2010E943A051816A8
:100330000CF04FC020E030E04AE754E4C501B401BE
:100340000E94E7036D8B7E8B8F8B988F20E030E0CF
:100350004AE755E40E943F056D877E878F87988B1B
:1003600020E030E040E85FE30E94E20387FD2EC01A
:1003700020E03FEF4FE757E46D857E858F859889B4
:100380000E943A051816C4F420E030E040E251E43F
:100390006D897E898F89988D0E943F050E9459043E
:1003A0006115710519F41A95F1F725C0C10101977E
:1003B000F1F761507109F4CF6D857E858F8598893D
:1003C0000E945904CB010197F1F7EDCF61E070E095
:1003D000F9CF20E030E04FE753E4C701B6010E94B7
:1003E0003A0518160CF055C0C301B2010E94590419
:1003F000CB010197F1F764E085E290E00E94E8020A
:1004000020E030E040E85FE3C701B6010E94E2036C
:1004100087FD80C020E03FEF4FE757E4C301B20102
:100420000E943A0518160CF04DC020E030E04AE773
:1004300054E4C501B4010E94E7034B015C0120E0D4
:1004400030E04AE755E40E943F056B017C0120E063
:1004500030E040E85FE30E94E20387FD30C020E027
:100460003FEF4FE757E4C701B6010E943A0518165F
:10047000F4F420E030E040E251E4C501B4010E9410
:100480003F050E9459046115710559F40A95F1F769
:100490002AC0C701B6010E945904162F84CF11E06B
:1004A00082CFC1010197F1F761507109ECCFC7010B
:1004B000B6010E945904CB010197F1F7E7CF61E043
:1004C00070E0F9CF20E030E04FE753E4C701B60118
:1004D0000E943A051816C4F4C301B2010E945904DF
:1004E000CB010197F1F789819A81AB81BC81298D7C
:1004F0003A8D4B8D5C8D820F931FA41FB51F89838E
:100500009A83AB83BC83D4CEC701B6010E94590441
:10051000062FBCCF01E0BACFCF93DF9300D0CDB789
:10052000DEB79A83898389819A81E0910201F091F3
:100530000301918789819A8180870F900F90DF91C5
:10054000CF910895CF93DF9300D0CDB7DEB79A83D4
:10055000898389819A81E0910201F0910301978357
:1005600089819A8186830F900F90DF91CF910895B2
:10057000E0910201F091030111828FE39CE90E9456
:10058000A202E0910201F0910301818182608183E6
:10059000808182608083818188618183808180689D
:1005A00080831582148290E080E00E948C02219A60
:1005B0000895CF93DF931F92CDB7DEB7FC01698317
:1005C00089819081982B90830F90DF91CF9108952E
:1005D000CF93DF931F92CDB7DEB7FC01698399817A
:1005E00080819095982390830F90DF91CF9108950B
:1005F000259A08952D9A08952D980895CF93DF9305
:10060000CDB7DEB72A970FB6F894DEBF0FBECDBFC9
:100610009A87898729853A85A7E6B1E00E94CC03AD
:1006200069837A838B839C831D821E821F82188636
:100630004D815E816F81788589819A81AB81BC8192
:10064000481759076A077B0748F02A960FB6F894AF
:10065000DEBF0FBECDBFDF91CF9108958D819E810A
:10066000AF81B8850196A11DB11D8D839E83AF8397
:10067000B887DECFCF93DF93CDB7DEB729970FB61C
:10068000F894DEBF0FBECDBF0E94B8020E945F008B
:1006900019868CE389838DE28A8380E28B838DE0E7
:1006A000888700ED17E08AE0E82EF12C94E6A92E69
:1006B000B12C28EEC22E23E0D22E8CE494E00E94CE
:1006C0008C02C801B7010E949603805D8F83CB0125
:1006D000B7010E949603805D8E83C801B5010E9418
:1006E0009603CB01B7010E949603805D8D83C801FC
:1006F000B6010E949603CB01B7010E949603805D6C
:100700008C8368E070E0CE0101960E94740080ED59
:1007100097E00E94FE0288EF91E10E948C0280ED3A
:1007200097E00E94FE0204561109C7CFAA1BBB1B0B
:1007300051E107C0AA1FBB1FA617B70710F0A61BE1
:10074000B70B881F991F5A95A9F780959095BC0102
:10075000CD010895A1E21A2EAA1BBB1BFD010DC0FD
:10076000AA1FBB1FEE1FFF1FA217B307E407F50761
:1007700020F0A21BB30BE40BF50B661F771F881F3D
:10078000991F1A9469F760957095809590959B01D3
:10079000AC01BD01CF010895A29FB001B39FC0017C
:1007A000A39F700D811D1124911DB29F700D811D9D
:1007B0001124911D08950E94CC03B7FF0895821B58
:1007C000930B08950E94C50408F481E008950E94E7
:1007D000FB030C9400050E94F90458F00E94F204F7
:1007E00040F029F45F3F29F00C94E90451110C9476
:1007F00034050C94EF040E94110568F39923B1F3BA
:10080000552391F3951B550BBB27AA276217730736
:10081000840738F09F5F5F4F220F331F441FAA1FCA
:10082000A9F335D00E2E3AF0E0E832D09150504086
:10083000E695001CCAF72BD0FE2F29D0660F771F34
:10084000881FBB1F261737074807AB07B0E809F01A
:10085000BB0B802DBF01FF2793585F4F3AF09E3F9F
:10086000510578F00C94E9040C9434055F3FE4F3EF
:10087000983ED4F3869577956795B795F7959F5FE2
:10088000C9F7880F911D9695879597F90895E1E02E
:10089000660F771F881FBB1F621773078407BA078D
:1008A00020F0621B730B840BBA0BEE1F88F7E095E8
:1008B00008950E94190588F09F5798F0B92F99273D
:1008C000B751B0F0E1F0660F771F881F991F1AF03B
:1008D000BA95C9F714C0B13091F00E943305B1E068
:1008E00008950C943305672F782F8827B85F39F067
:1008F000B93FCCF3869577956795B395D9F73EF4D4
:1009000090958095709561957F4F8F4F9F4F08957B
:10091000E89409C097FB3EF4909580957095619599
:100920007F4F8F4F9F4F9923A9F0F92F96E9BB274F
:100930009395F695879577956795B795F111F8CFCB
:10094000FAF4BB0F11F460FF1BC06F5F7F4F8F4F36
:100950009F4F16C0882311F096E911C0772321F02C
:100960009EE8872F762F05C0662371F096E8862FC4
:1009700070E060E02AF09A95660F771F881FDAF71B
:10098000880F9695879597F90895990F0008550F48
:10099000AA0BE0E8FEEF16161706E807F907C0F005
:1009A00012161306E407F50798F0621B730B840B0D
:1009B000950B39F40A2661F0232B242B252B21F4E7
:1009C00008950A2609F4A140A6958FEF811D811D87
:1009D000089597F99F6780E870E060E008959FEFC1
:1009E00080EC089500240A941616170618060906C6
:1009F000089500240A941216130614060506089595
:100A0000092E0394000C11F4882352F0BB0F40F41C
:100A1000BF2B11F460FF04C06F5F7F4F8F4F9F4F5C
:100A2000089557FD9058440F551F59F05F3F71F0DE
:100A30004795880F97FB991F61F09F3F79F0879545
:100A40000895121613061406551FF2CF4695F1DFCE
:100A500008C0161617061806991FF1CF869571055E
:100A6000610508940895E894BB2766277727CB0192
:100A700097F908950E94C50408F48FEF08950E9425
:100A800052050C9400050E94F20438F00E94F9040B
:100A900020F0952311F00C94E9040C94EF04112438
:100AA0000C9434050E94110570F3959FC1F3950FC6
:100AB00050E0551F629FF001729FBB27F00DB11DE2
:100AC000639FAA27F00DB11DAA1F649F6627B00D72
:100AD000A11D661F829F2227B00DA11D621F739F5B
:100AE000B00DA11D621F839FA00D611D221F749F69
:100AF0003327A00D611D231F849F600D211D822FB0
:100B0000762F6A2F11249F5750409AF0F1F08823D6
:100B10004AF0EE0FFF1FBB1F661F771F881F915003
:100B20005040A9F79E3F510580F00C94E9040C94C5
:100B300034055F3FE4F3983ED4F386957795679547
:100B4000B795F795E7959F5FC1F7FE2B880F911D2D
:0C0B50009695879597F90895F894FFCFCB
:040B5C00C000800055
:00000001FF
