:100000000C94B1000C94CE000C94CE000C94CE0055
:100010000C94CE000C94CE000C94CE000C94CE0028
:100020000C94CE000C94CE000C94CE000C94CE0018
:100030000C94CE000C94CE000C94CE000C94CE0008
:100040000C94CE000C94CE000C94CE000C94CE00F8
:100050000C94CE000C94CE000C94CE000C94CE00E8
:100060000C94CE000C94CE0000407A10F35A00A0FD
:10007000724E18090010A5D4E80000E87648170071
:1000800000E40B54020000CA9A3B000000E1F505B1
:10009000000080969800000040420F000000A086FB
:1000A00001000000102700000000E803000000002D
:1000B0006400000000000A000000000001000000D1
:1000C00000002C76D888DC674F0823DFC1DFAE59EB
:1000D000E1B1B796E5E3E453C63AE651997696E87E
:1000E000E6C28426EB898C9B62ED407C6FFCEFBC02
:1000F0009C9F40F2BAA56FA5F490055A2AF75C932D
:100100006B6CF9676DC11BFCE0E40D47FEF520E662
:10011000B500D0ED902E0300943577050080841E45
:10012000080000204E0A000000C80C333333330FA0
:10013000986E12831141EF8D2114893BE65516CF3D
:10014000FEE6DB18D1844B381BF77C1D901DA4BB49
:10015000E424203284725E228100C9F124ECA1E5FE
:100160003D2711241FBECFEFD8E0DEBFCDBF11E089
:10017000A0E0B1E0EEE6FEE002C005900D92A034F2
:10018000B107D9F721E0A0E4B1E001C01D92A43A83
:10019000B207E1F70E94F4020C9435070C940000BA
:1001A000E0910201F0910301808181608083E09100
:1001B0000201F091030180818D7F8083E091040131
:1001C000F091050180818E7F808308958AE08A9571
:1001D000F1F7E0910401F091050180818160808355
:1001E00085E38A95F1F7E0910401F09105018081A2
:1001F0008E7F8083E0910001F091010181E395E71A
:1002000035E0208121FD08C0232F2A95F1F70197C1
:10021000C1F78FEF9FEF089580E090E035E02081F7
:1002200021FF05C0232F2A95F1F70196F8CF6AE345
:1002300070E00E943503CB010895E0910601F09132
:100240000701808180780895E0910601F09107010F
:10025000158287E6848386E0828388E1818308951E
:10026000E0910601F0910701908195FFFDCF868313
:100270000895E0910601F0910701808187FFFDCF8D
:1002800086810895CF93DF93EC018991882319F03B
:100290000E943001FACFDF91CF910895AC0181E047
:1002A00090E020E030E0261737075CF4FC01E49F83
:1002B000C001E59F900DF49F900D11242F5F3F4FDB
:1002C000F2CF0895CF92DF92EF92FF92CF93DF9318
:1002D0006C01EB0161E070E080E090E0E0E0F0E0D4
:1002E0000D2C000CEE08FF08EC17FD0744F49B01F1
:1002F000AC01C701B6010E9425033196F5CFDF910D
:10030000CF91FF90EF90DF90CF900895CF92DF9242
:10031000EF92FF921F93CF93DF93CDB7DEB727976E
:100320000FB6F894DEBF0FBECDBF9C01AB014150AC
:100330005109EE24E394F12C80E090E0EAE0841788
:10034000950744F4D701EA9F7001EB9FF00C11244C
:100350000196F5CF37FD03C0462F10E008C08DE2AF
:10036000898331952195310941E0460F11E08AE0FA
:10037000C82ED12C812F012E000C990BE1E0F0E06A
:10038000EC0FFD1FE80FF91F141774F4C901B70132
:100390000E943503605D60839C01C701B6010E9425
:1003A00035037B011F5FE6CF1082CE0101960E94CC
:1003B000420127960FB6F894DEBF0FBECDBFDF9186
:1003C000CF911F91FF90EF90DF90CF9008952F92E3
:1003D0003F924F925F926F927F928F929F92AF92D5
:1003E000BF92CF92DF92EF92FF920F931F93CF9322
:1003F000DF93CDB7DEB72C970FB6F894DEBF0FBEF4
:10040000CDBF6B877C87782E692E8A015A0181E0E7
:10041000A81AB108C12CD12C7601C394E0E0F0E019
:10042000EA15FB0554F4AAE0B0E0A70196010E948A
:1004300068036B017C013196F3CFFE0131965F01B9
:100440004F018AE0282E312C412C512CC4018A19ED
:100450009B0980179107CCF46B857C85872D962DA1
:10046000A70196010E944903205DF40121934F01E9
:100470006B877C87782E692EC701B601A201910196
:100480000E94490369017A01E1CF17FF02C000E031
:1004900010E0F501E00FF11F1082C5010E9442013A
:1004A0002C960FB6F894DEBF0FBECDBFDF91CF9173
:1004B0001F910F91FF90EF90DF90CF90BF90AF9082
:1004C0009F908F907F906F905F904F903F902F9074
:1004D0000895BF92CF92DF92EF92FF920F931F93F6
:1004E000CF93DF93CDB7DEB72A970FB6F894DEBF70
:1004F0000FBECDBF20E030E048EC52E40E9417046C
:100500000E94B803362F272FFE0131967E0184E02A
:10051000E80EF11C04E610E0BE2E4F2F8AE0C82E34
:10052000D12C832F922FB8010E943503605D619317
:10053000382F292FC801B6010E9435038B01EE1513
:10054000FF0579F71C828B2D942F0E9442012A9679
:100550000FB6F894DEBF0FBECDBFDF91CF911F91D4
:100560000F91FF90EF90DF90CF90BF9008950F9381
:100570001F93CF93DF93CDB7DEB7C055D1090FB628
:10058000F894DEBF0FBECDBF8E010F5F1F4F0E94DC
:10059000AC04C8010E944201C05BDF4F0FB6F89463
:1005A000DEBF0FBECDBFDF91CF911F910F91089598
:1005B000CF93DF930E943901C0E4D1E09E01205423
:1005C00031408D3041F08A3031F0882321F0899319
:1005D0000E943901F3CFF901E05CFE4F108280E404
:1005E00091E0DF91CF9108950E94240188E091E08D
:1005F0000E94420164E070E088E090E00E94860181
:1006000000E911E088E091E00E9442010E94E600CA
:10061000EC01CF3F8FEFD80761F086E191E00E94B7
:10062000420164E070E0CE010E94860182E291E026
:1006300002C088E291E00E94420180E197E2F80165
:100640003197F1F70197D9F7DDCFDB018F939F93B6
:100650000E946803BF91AF91A29F800D911DA39F3F
:10066000900DB29F900D1124089597FB072E16F45C
:10067000009407D077FD09D00E94730307FC05D0D2
:100680003EF4909581959F4F0895709561957F4FA9
:100690000895052E97FB1EF400940E94600357FDF9
:1006A00007D00E94870307FC03D04EF40C9460032C
:1006B00050954095309521953F4F4F4F5F4F08958E
:1006C00090958095709561957F4F8F4F9F4F0895BE
:1006D0000E94A903A59F900DB49F900DA49F800D2B
:1006E000911D11240895AA1BBB1B51E107C0AA1F2D
:1006F000BB1FA617B70710F0A61BB70B881F991FC3
:100700005A95A9F780959095BC01CD010895A1E275
:100710001A2EAA1BBB1BFD010DC0AA1FBB1FEE1F7B
:10072000FF1FA217B307E407F50720F0A21BB30BC6
:10073000E40BF50B661F771F881F991F1A9469F742
:1007400060957095809590959B01AC01BD01CF019E
:100750000895A29FB001B39FC001A39F700D811D9A
:100760001124911DB29F700D811D1124911D0895BA
:100770000E94BF036894B1110C94110408950E9463
:10078000F60388F09F5798F0B92F9927B751B0F02A
:10079000E1F0660F771F881F991F1AF0BA95C9F705
:1007A00014C0B13091F00E941004B1E008950C948F
:1007B0001004672F782F8827B85F39F0B93FCCF342
:1007C000869577956795B395D9F73EF49095809582
:1007D000709561957F4F8F4F9F4F089557FD9058AB
:1007E000440F551F59F05F3F71F04795880F97FBF5
:1007F000991F61F09F3F79F08795089512161306AF
:100800001406551FF2CF4695F1DF08C016161706DD
:100810001806991FF1CF8695710561050894089512
:10082000E894BB2766277727CB0197F908950E94A4
:100830002A040C949B040E948D0438F00E949404B6
:1008400020F0952311F00C9484040C948A04112454
:100850000C9411040E94EE0370F3959FC1F3950F61
:1008600050E0551F629FF001729FBB27F00DB11D34
:10087000639FAA27F00DB11DAA1F649F6627B00DC4
:10088000A11D661F829F2227B00DA11D621F739FAD
:10089000B00DA11D621F839FA00D611D221F749FBB
:1008A0003327A00D611D231F849F600D211D822F02
:1008B000762F6A2F11249F5750409AF0F1F0882329
:1008C0004AF0EE0FFF1FBB1F661F771F881F915056
:1008D0005040A9F79E3F510580F00C9484040C947D
:1008E00011045F3FE4F3983ED4F3869577956795BE
:1008F000B795F795E7959F5FC1F7FE2B880F911D80
:100900009695879597F9089597F99F6780E870E025
:1009100060E008959FEF80EC089500240A94161675
:10092000170618060906089500240A9412161306DD
:10093000140605060895092E0394000C11F488236B
:1009400052F0BB0F40F4BF2B11F460FF04C06F5F87
:100950007F4F8F4F9F4F0895EF920F931F93CF9329
:10096000DF93E80147FD02C034E001C034E1042E0A
:10097000000C550B57FF03C0519541955109E32ECB
:10098000022F242FAE010E94CC04CE01DF91CF9123
:100990001F910F91EF900895A9E0B0E0E2EDF4E02F
:1009A0000C9404076A01122FB02E2BE3201720F0BD
:1009B000FF24F394F00E02C02CE3F22E0F2D27E05B
:1009C000AE014F5F5F4F0E942606BC014981842F14
:1009D0008970813031F0E1FC06C0E0FE06C090E293
:1009E00005C09DE203C09BE201C090E05E2D507106
:1009F00043FF3CC0911102C083E001C084E0811735
:100A000018F4212F281B01C020E051110BC0F60162
:100A1000822F30E2882319F031938150FBCFC20E30
:100A2000D11C20E0992329F0D6019C93F601319640
:100A30006F01C6010396E2FE0AC03EE4D6013C9374
:100A400041E411964C93119712963C9306C03EE6F2
:100A5000F601308341E641833283FC01322F40E2CC
:100A6000332309F442C041933150FACF42FF44C0CE
:100A7000911102C083E001C084E0811718F4212F96
:100A8000281B01C020E051110BC0F601822F30E27B
:100A9000882319F031938150FBCFC20ED11C20E086
:100AA000992329F0D6019C93F60131966F01C60176
:100AB0000396E2FE0BC039E4D6013C933EE4119666
:100AC0003C93119736E412963C9307C039E6F60141
:100AD00030833EE6318336E63283FC01322F40E23A
:100AE000332319F041933150FBCFFC01E20FF11D8C
:100AF00010828EEF9FEFA6C021E030E0911102C07E
:100B000020E030E0161617061CF4FB01319602C0F7
:100B1000E1E0F0E02E0F3F1FBB2021F0EB2DF0E0D5
:100B2000319602C0E0E0F0E02E0F3F1FE12FF0E031
:100B30002E173F071CF4121B212F01C020E08E2D21
:100B4000887159F4F601822F30E2882319F031932D
:100B50008150FBCFC20ED11C20E0992329F0D60191
:100B60009C93F60131966F0151110BC0F601822F53
:100B700090E3882319F091938150FBCFC20ED11CD2
:100B800020E00F2D060F9A81342F307144FF03C0EF
:100B9000913309F40150101624F4093018F008E0DC
:100BA00001C001E0AB0177FF02C040E050E0FB0173
:100BB000E41BF50BA1E0B0E0AC0FBD1FEA0FFB1F7B
:100BC0008EE2A82E4B01801A91080B2D10E0119592
:100BD000019511094F3FBFEF5B0721F4D601AC929D
:100BE00011966D01641775072CF08416950614F4A0
:100BF000818101C080E3415051093196D60111969F
:100C00007D014017510724F0D6018C936701E2CF94
:100C10006417750739F4963320F4953319F43111BC
:100C200001C081E3F6018083F701822F90E28823DF
:100C300019F091938150FBCFF701E20FF11D108263
:100C400080E090E02996ECE00C942007283008F032
:100C500027E03327DA01990F311D87FD9160009657
:100C60006105710539F432602E5F3D9330E32A95BA
:100C7000E1F708959F3F30F080387105610509F074
:100C80003C5F3C5F3D93913008F08068911DDF939D
:100C9000CF931F930F93FF92EF92192F987F969502
:100CA000E92F96959695E90FFF27EE53FF4F992769
:100CB0003327EE24FF24A701E70105900894079449
:100CC00028F4360FE71EF81E491F511D660F771FC7
:100CD000881F991F0694A1F70590079428F4E70E42
:100CE000F81E491F561FC11D770F881F991F661FC9
:100CF0000694A1F70590079428F4F80E491F561F93
:100D0000C71FD11D880F991F661F771F0694A1F773
:100D10000590079420F4490F561FC71FD81F990F3D
:100D2000661F771F881F0694A9F784911095177086
:100D300041F0D695C79557954795F794E7941A953E
:100D4000C1F7E8E6F0E0689415901591359165914A
:100D5000959105907FE27395E118F10A430B560BCC
:100D6000C90BD009C0F7E10CF11E431F561FC91F64
:100D7000D01D7EF4703311F48A95E6CFE8940150CB
:100D800030F0080F0AF40027021708F4202F2395EB
:100D9000022F7A3328F079E37D932A95E9F710C082
:100DA0007D932A9589F606949795679537951795BB
:100DB0001794E118F10A430B560BC90BD00998F0B0
:100DC00023957E9173957A3308F070E37C9320131A
:100DD000B8F77E9170617D9330F0839571E37D93D8
:100DE00070E32A95E1F71124EF90FF900F911F9186
:100DF000CF91DF91992787FD909508952F923F928B
:100E00004F925F926F927F928F929F92AF92BF921A
:100E1000CF92DF92EF92FF920F931F93CF93DF93C6
:100E2000CDB7DEB7CA1BDB0B0FB6F894DEBF0FBE23
:100E3000CDBF09942A88398848885F846E847D8470
:100E40008C849B84AA84B984C884DF80EE80FD8072
:100E50000C811B81AA81B981CE0FD11D0FB6F894E8
:0E0E6000DEBF0FBECDBFED010895F894FFCFA9
:100E6E00230024002500C000484F4C41204D554E14
:100E7E00444F200D0A0044697374616E6369613AD0
:100E8E00200020636D0D0A004E6F2073652064658F
:100E9E007465637461206F626A65746F2E0D0A004B
:00000001FF
