:100000000C9434000C9451000C9451000C94510049
:100010000C9451000C9451000C9451000C9451001C
:100020000C9451000C9451000C9451000C9451000C
:100030000C9451000C9451000C9451000C945100FC
:100040000C9451000C9451000C9451000C945100EC
:100050000C9451000C9451000C9451000C945100DC
:100060000C9451000C94510011241FBECFEFD8E026
:10007000DEBFCDBF11E0A0E0B1E0E8ECFAE002C0E5
:1000800005900D92A430B107D9F721E0A4E0B1E0CA
:1000900001C01D92A630B207E1F70E9457030C94ED
:1000A00062050C94000080910401909105010E946A
:1000B00087020895E0910001F0910101158287E027
:1000C000848386E2828388E181830895E091000140
:1000D000F0910101908195FFFDCF86830895EF9205
:1000E000FF920F931F93CF93DF9300D0CDB7DEB76E
:1000F0007C018B011A82198289819A81801791076C
:100100004CF00F900F90DF91CF911F910F91FF90C6
:10011000EF900895E981FA81EE0DFF1D80810E9424
:10012000660089819A8101969A838983E5CFE0915F
:100130000001F0910101808187FFFDCF8681089544
:1001400064E084E290E00C94F6022F923F924F928A
:100150005F926F927F928F929F92AF92BF92CF9257
:10016000DF92EF92FF920F931F93CF93DF93CDB760
:10017000DEB76C970FB6F894DEBF0FBECDBF9A877F
:1001800089877C876B8789859A85892B09F05DC073
:100190006B857C85072E000C880B990B0E94400410
:1001A0004B015C0120E030E04AE755E40E94F50491
:1001B0006B017C0120E030E040E85FE30E9498039F
:1001C00087FD40C020E03FEF4FE757E4C701B6018D
:1001D0000E94F004181674F520E030E040E251E48B
:1001E000C501B4010E94F5040E940F0420E931E02A
:1001F00061157105C9F46C960FB6F894DEBF0FBE99
:10020000CDBFDF91CF911F910F91FF90EF90DF90C5
:10021000CF90BF90AF909F908F907F906F905F90A6
:100220004F903F902F900895C9010197F1F76150C9
:100230007109DECFC701B6010E940F04CB010197FF
:10024000F1F7D9CF61E070E0F9CF29853A85032E27
:10025000000C440B550B60E271EA87E090E00E94CD
:100260006003298B3A8B4B8B5C8BAB85BC8528EE6E
:1002700033E00E9491036D837E838F839887198278
:100280001A821B821C8229893A894B895C89220F38
:10029000331F441F551F298F3A8F4B8F5C8F90E976
:1002A000292E3324339449815A816B817C818D813D
:1002B0009E81AF81B885481759076A077B0708F008
:1002C0009ACF64E085E290E00E94F60269897A891B
:1002D0008B899C890E943E044B015C012BEA3AEA1F
:1002E0004AEA50E40E94F5046B017C0120E030E012
:1002F00040E850E4C501B4010E94F5042B013C0123
:1003000020E030E040E85FE3C701B6010E949803B7
:1003100087FDC0C020E03FEF4FE757E4C301B201C3
:100320000E94F00418160CF04FC020E030E04AE7BD
:1003300054E4C501B4010E949D036D8B7E8B8F8BAD
:10034000988F20E030E04AE755E40E94F5046D877D
:100350007E878F87988B20E030E040E85FE30E9443
:10036000980387FD2EC020E03FEF4FE757E46D85EF
:100370007E858F8598890E94F0041816C4F420E0C9
:1003800030E040E251E46D897E898F89988D0E942A
:10039000F5040E940F046115710519F41A95F1F71F
:1003A00025C0C1010197F1F761507109F4CF6D8546
:1003B0007E858F8598890E940F04CB010197F1F704
:1003C000EDCF61E070E0F9CF20E030E04FE753E49B
:1003D000C701B6010E94F00418160CF055C0C30105
:1003E000B2010E940F04CB010197F1F764E085E2AE
:1003F00090E00E94050320E030E040E85FE3C701A1
:10040000B6010E94980387FD80C020E03FEF4FE7D0
:1004100057E4C301B2010E94F00418160CF04DC05D
:1004200020E030E04AE754E4C501B4010E949D0396
:100430004B015C0120E030E04AE755E40E94F504FE
:100440006B017C0120E030E040E85FE30E9498030C
:1004500087FD30C020E03FEF4FE757E4C701B6010A
:100460000E94F0041816F4F420E030E040E251E479
:10047000C501B4010E94F5040E940F0461157105C5
:1004800059F40A95F1F72AC0C701B6010E940F047A
:10049000162F84CF11E082CFC1010197F1F761508F
:1004A0007109ECCFC701B6010E940F04CB0101977F
:1004B000F1F7E7CF61E070E0F9CF20E030E04FE7FF
:1004C00053E4C701B6010E94F0041816C4F4C30136
:1004D000B2010E940F04CB010197F1F789819A8143
:1004E000AB81BC81298D3A8D4B8D5C8D820F931F22
:1004F000A41FB51F89839A83AB83BC83D4CEC70165
:10050000B6010E940F04062FBCCF01E0BACFCF93F3
:10051000DF9300D0CDB7DEB79A83898389819A8132
:10052000E0910201F0910301918789819A8180878E
:100530000F900F90DF91CF910895CF93DF9300D06C
:10054000CDB7DEB79A83898389819A81E0910201D0
:10055000F0910301938789819A8182870F900F9090
:10056000DF91CF910895CF93DF9300D0CDB7DEB761
:100570009A83898389819A81E0910201F091030134
:10058000978389819A8186830F900F90DF91CF9115
:100590000895E0910201F091030111828BEF94E044
:1005A0000E94B3028BEF94E00E949D02E091020151
:1005B000F0910301818181608183808182608083E9
:1005C0008181886181838081806880831582148223
:1005D00090E080E00E948702EFE6F0E08081846096
:1005E00080838FB780688FBF219A0895CF93DF9360
:1005F0001F92CDB7DEB7FC01698389819081982B6A
:1006000090830F90DF91CF910895CF93DF931F9246
:10061000CDB7DEB7FC0169839981808190959823DD
:1006200090830F90DF91CF910895259A08952D9A88
:1006300008952D980895CF93DF93CDB7DEB72A970D
:100640000FB6F894DEBF0FBECDBF9A878987298584
:100650003A85A7E6B1E00E94820369837A838B839F
:100660009C831D821E821F8218864D815E816F8150
:10067000788589819A81AB81BC81481759076A07BF
:100680007B0748F02A960FB6F894DEBF0FBECDBFA9
:10069000DF91CF9108958D819E81AF81B8850196BC
:1006A000A11DB11D8D839E83AF83B887DECF0E94CD
:1006B000C9020E945A0090E080E00E948702FFCFAA
:1006C000A1E21A2EAA1BBB1BFD010DC0AA1FBB1F56
:1006D000EE1FFF1FA217B307E407F50720F0A21BC8
:1006E000B30BE40BF50B661F771F881F991F1A9435
:1006F00069F760957095809590959B01AC01BD015F
:10070000CF010895A29FB001B39FC001A39F700DB8
:10071000811D1124911DB29F700D811D1124911D09
:1007200008950E948203B7FF0895821B930B0895DA
:100730000E947B0408F481E008950E94B1030C94A8
:10074000B6040E94AF0458F00E94A80440F029F4B7
:100750005F3F29F00C949F0451110C94EA040C940F
:10076000A5040E94C70468F39923B1F3552391F3BC
:10077000951B550BBB27AA2762177307840738F010
:100780009F5F5F4F220F331F441FAA1FA9F335D06D
:100790000E2E3AF0E0E832D091505040E695001C21
:1007A000CAF72BD0FE2F29D0660F771F881FBB1FDB
:1007B000261737074807AB07B0E809F0BB0B802DB9
:1007C000BF01FF2793585F4F3AF09E3F510578F0E5
:1007D0000C949F040C94EA045F3FE4F3983ED4F336
:1007E000869577956795B795F7959F5FC9F7880FB9
:1007F000911D9695879597F90895E1E0660F771F0B
:10080000881FBB1F621773078407BA0720F0621B9B
:10081000730B840BBA0BEE1F88F7E09508950E94C6
:10082000CF0488F09F5798F0B92F9927B751B0F0AF
:10083000E1F0660F771F881F991F1AF0BA95C9F764
:1008400014C0B13091F00E94E904B1E008950C9415
:10085000E904672F782F8827B85F39F0B93FCCF3C8
:10086000869577956795B395D9F73EF490958095E1
:10087000709561957F4F8F4F9F4F0895E89409C001
:1008800097FB3EF490958095709561957F4F8F4FC3
:100890009F4F9923A9F0F92F96E9BB279395F695D9
:1008A000879577956795B795F111F8CFFAF4BB0F57
:1008B00011F460FF1BC06F5F7F4F8F4F9F4F16C0BB
:1008C000882311F096E911C0772321F09EE8872F45
:1008D000762F05C0662371F096E8862F70E060E001
:1008E0002AF09A95660F771F881FDAF7880F96957A
:1008F000879597F90895990F0008550FAA0BE0E81E
:10090000FEEF16161706E807F907C0F012161306D1
:10091000E407F50798F0621B730B840B950B39F411
:100920000A2661F0232B242B252B21F408950A2677
:1009300009F4A140A6958FEF811D811D089597F9B7
:100940009F6780E870E060E008959FEF80EC089575
:1009500000240A941616170618060906089500249E
:100960000A9412161306140605060895092E039418
:10097000000C11F4882352F0BB0F40F4BF2B11F48C
:1009800060FF04C06F5F7F4F8F4F9F4F089557FDEB
:100990009058440F551F59F05F3F71F04795880FED
:1009A00097FB991F61F09F3F79F087950895121684
:1009B00013061406551FF2CF4695F1DF08C0161630
:1009C00017061806991FF1CF8695710561050894E1
:1009D0000895E894BB2766277727CB0197F90895F8
:1009E0000E947B0408F48FEF08950E9408050C9480
:1009F000B6040E94A80438F00E94AF0420F09523AA
:100A000011F00C949F040C94A50411240C94EA0496
:100A10000E94C70470F3959FC1F3950F50E0551FD6
:100A2000629FF001729FBB27F00DB11D639FAA2743
:100A3000F00DB11DAA1F649F6627B00DA11D661F92
:100A4000829F2227B00DA11D621F739FB00DA11DB3
:100A5000621F839FA00D611D221F749F3327A00D6D
:100A6000611D231F849F600D211D822F762F6A2F09
:100A700011249F5750409AF0F1F088234AF0EE0F6E
:100A8000FF1FBB1F661F771F881F91505040A9F79B
:100A90009E3F510580F00C949F040C94EA045F3F44
:100AA000E4F3983ED4F3869577956795B795F795D7
:100AB000E7959F5FC1F7FE2B880F911D969587954F
:080AC00097F90895F894FFCFA7
:040AC800C0008000EA
:00000001FF
