:100000000C9434000C9449000C9449000C94490061
:100010000C9449000C9449000C9449000C9449003C
:100020000C9449000C9449000C9449000C9449002C
:100030000C9449000C9449000C9449000C9449001C
:100040000C9449000C9449000C9449000C9449000C
:100050000C9449000C9449000C9449000C944900FC
:100060000C9449000C94490011241FBECFEFD8E036
:10007000DEBFCDBF11E0A0E0B1E0E0EFF1E002C0F3
:1000800005900D92A630B107D9F70E94EF000C94AD
:10009000F6000C940000CF93DF9300D000D0CDB7D2
:1000A000DEB719821A821B821C8222EC31E0AC017D
:1000B000429FC001439F900D529F900D1124A0E0DC
:1000C000B0E049815A816B817C81481759076A07E2
:1000D0007B0768F449815A816B817C814F5F5F4F58
:1000E0006F4F7F4F49835A836B837C83EACF0F9096
:1000F0000F900F900F90DF91CF910895E091020142
:10010000F0910301808181608083E0910201F09190
:100110000301808184608083E0910201F0910301FA
:10012000808188608083E0910401F09105018081E5
:10013000827F8083E0910201F091030180818D7FB5
:100140008083E0910401F0910501808182608083C9
:100150000895CF93DF9300D0CDB7DEB71A8219820E
:10016000E0910001F0910101808181FD14C099812D
:1001700081E0911180E0898382E390E00E944B004E
:10018000E0910001F0910101808181FFFDCF82E3C8
:1001900090E00E944B0089818111E2CFE09104013F
:1001A000F091050130812A819A818A81327F217004
:1001B000232B9270990F922B8470880F892B808348
:1001C0008A8190E00196877099278A8388EB9BE06B
:1001D0000E944B0088EB9BE00E944B00C1CF0E9425
:1001E0007E000E94A90080E090E00895F894FFCF7F
:0601F0002300240025009D
:00000001FF
