:100000000C9434000C9449000C9449000C94490061
:100010000C9449000C9449000C9449000C9449003C
:100020000C9449000C9449000C9449000C9449002C
:100030000C9449000C9449000C9449000C9449001C
:100040000C9449000C9449000C9449000C9449000C
:100050000C9449000C9449000C9449000C944900FC
:100060000C9449000C94490011241FBECFEFD8E036
:10007000DEBFCDBF11E0A0E0B1E0E6EEFAE002C0E5
:1000800005900D92AA30B107D9F70E94D4020C94C2
:1000900071050C940000E0910001F091010180E4F1
:1000A000848387E882830895E0910001F091010143
:1000B0009481907F8F70892B848382818064828376
:1000C000828186FDFDCF8081218190E0922B089571
:1000D000E0910201F0910301158287E6848388E1B3
:1000E000818386E082830895E0910201F09103010B
:1000F000908195FFFDCF86830895CF93DF93EC0128
:100100008991882319F00E947400FACFDF91CF9172
:100110000895E0910201F0910301808187FFFDCFF6
:1001200086810895EF92FF920F931F93CF93DF93F1
:1001300000D000D000D0CDB7DEB7009711F480E337
:100140001FC09E012F5F3F4F7901F90100E010E0D1
:100150002AE030E00F5F1F4FB9010E940B03805D62
:100160008193CB010097B1F70E0D1F1DE016F1062C
:1001700031F0F80182918F010E947400F7CF8AE07C
:1001800026960FB6F894DEBF0FBECDBFDF91CF919C
:100190001F910F91FF90EF900C947400E091060175
:1001A000F091070180818460808344E02CEE3DE182
:1001B000E0910801F0910901808184278083C901C1
:1001C0000197F1F7F5CF4F925F926F927F928F92E6
:1001D0009F92AF92BF92CF92DF92EF92FF920F93D6
:1001E0001F93CF93DF93CDB7DEB72A970FB6F8945E
:1001F000DEBF0FBECDBF3C018B01E0910601F09147
:100200000701808184608083B301072C000C880B78
:10021000990B0E944F049B01AC0160E074E284E7FB
:1002200099E40E94A50320E030E040E05FE30E94F3
:1002300004056B017C0188EE93E0089FB001099FE3
:10024000700D189F700D1124072E000C880B990B50
:100250000E944F044B015C01A7019601C701B60142
:100260000E9434039B01AC01C501B4010E94A503A7
:100270000E9417046D837E838F839887672849F0D7
:100280008D809E80880C991CA12CB12C00E911E076
:10029000D0C02BEA3AEA4AEA50E4C501B4010E9410
:1002A00004052B013C0120E030E040E85FE30E94C0
:1002B000A00387FD73C020E030E040E850E4C501B2
:1002C000B4010E94040569837A838B839C8320E0B8
:1002D0003FEF4FE757E40E94FF0418160CF044C0AC
:1002E00020E030E04AE754E4C501B4010E94A503D0
:1002F0002B013C0120E030E04AE755E40E94040570
:100300004B015C0120E030E040E85FE30E94A00385
:1003100087FD24C020E03FEF4FE757E4C501B4015B
:100320000E94FF041816ACF420E030E040E251E4F3
:10033000C301B2010E9404050E941E0420E931E0BD
:100340006115710569F1C9010197F1F761507109F2
:10035000F7CFC501B4010E941E0402C061E070E045
:10036000CB010197F1F71CC020E030E04FE753E4E8
:10037000C301B2010E94FF04181654F469817A8106
:100380008B819C810E941E04CB010197F1F778CFED
:10039000C301B2010E941E04698702C081E08987FF
:1003A00099859A95F1F76CCFE0910801F0910901D8
:1003B000808194E0892780832BEA3AEA4AEA50E474
:1003C000C701B6010E9404052B013C0120E030E08A
:1003D00040E85FE30E94A00387FD7CC020E030E09E
:1003E00040E850E4C701B6010E94040569837A839E
:1003F0008B839C8320E03FEF4FE757E40E94FF048C
:100400001816E4F020E030E04FE753E4C301B201F6
:100410000E94FF0418160CF057C069817A818B8105
:100420009C810E941E04CB010197F1F79FEFA91A4E
:10043000B90AA814B9040CF4B7CF52C020E030E0D8
:100440004AE754E4C701B6010E94A50369837A8391
:100450008B839C8320E030E04AE755E40E9404054A
:100460002B013C0120E030E040E85FE30E94A00364
:1004700087FD24C020E03FEF4FE757E4C301B201FE
:100480000E94FF041816ACF420E030E040E251E492
:1004900069817A818B819C810E9404050E941E04DF
:1004A00061157105C9F0C8010197F1F76150710933
:1004B000F7CFC301B2010E941E0402C061E070E0E8
:1004C000CB010197F1F708C0C301B2010E941E04DD
:1004D0006A8702C081E08A878A858A95F1F7A6CF6C
:1004E0002A960FB6F894DEBF0FBECDBFDF91CF9135
:1004F0001F910F91FF90EF90DF90CF90BF90AF9042
:100500009F908F907F906F905F904F900895E091B3
:100510000601F0910701808181608083E0910601EE
:10052000F091070180818D7F8083E0910801F09137
:10053000090180818E7F808308958AE08A95F1F792
:10054000E0910801F091090180818160808385E359
:100550008A95F1F7E0910801F091090180818E7F81
:100560008083E0910401F091050181E395E735E096
:10057000208121FD08C0232F2A95F1F70197C1F7AB
:100580008FEF9FEF089580E090E035E0208121FF1C
:1005900005C0232F2A95F1F70196F8CF6AE370E0A2
:1005A0000E941F03CB0108950E944B000E94680027
:1005B0000E94870290EDE92E97E0F92E0FE010E0FF
:1005C00082E00E945400EC010E94920086E0D695E1
:1005D000C7958A95E1F7CE9DC001CF9D900D11245E
:1005E000B8010E941F03EB01C05EDC4F86E40E944D
:1005F0007400CE010E94920060E273E0CE010E947E
:10060000E3008FEF93EC29E0815090402040E1F728
:1006100000C00000D5CFAA1BBB1B51E107C0AA1F19
:10062000BB1FA617B70710F0A61BB70B881F991F93
:100630005A95A9F780959095BC01CD01089597FB37
:10064000072E16F4009407D077FD09D00E940B0303
:1006500007FC05D03EF4909581959F4F08957095C5
:1006600061957F4F08955058BB27AA270E944B03DE
:100670000C94C5040E94B70438F00E94BE0420F018
:1006800039F49F3F19F426F40C94B4040EF4E09569
:10069000E7FB0C94AE04E92F0E94D60458F3BA1776
:1006A000620773078407950720F079F4A6F50C9488
:1006B000F8040EF4E0950B2EBA2FA02D0B01B90112
:1006C00090010C01CA01A0011124FF27591B99F0C8
:1006D000593F50F4503E68F11A16F040A22F232FD4
:1006E000342F4427585FF3CF469537952795A79524
:1006F000F0405395C9F77EF41F16BA0B620B730BCB
:10070000840BBAF09150A1F0FF0FBB1F661F771F3B
:10071000881FC2F70EC0BA0F621F731F841F48F4F0
:10072000879577956795B795F7959E3F08F0B0CF79
:100730009395880F08F09927EE0F97958795089560
:100740000E948A0408F481E008950E94B9030C9481
:10075000C5040E94BE0458F00E94B70440F029F47A
:100760005F3F29F00C94AE0451110C94F9040C94E1
:10077000B4040E94D60468F39923B1F3552391F38E
:10078000951B550BBB27AA2762177307840738F000
:100790009F5F5F4F220F331F441FAA1FA9F335D05D
:1007A0000E2E3AF0E0E832D091505040E695001C11
:1007B000CAF72BD0FE2F29D0660F771F881FBB1FCB
:1007C000261737074807AB07B0E809F0BB0B802DA9
:1007D000BF01FF2793585F4F3AF09E3F510578F0D5
:1007E0000C94AE040C94F9045F3FE4F3983ED4F308
:1007F000869577956795B795F7959F5FC9F7880FA9
:10080000911D9695879597F90895E1E0660F771FFA
:10081000881FBB1F621773078407BA0720F0621B8B
:10082000730B840BBA0BEE1F88F7E09508950E94B6
:100830001E046894B1110C94F90408950E94DE041A
:1008400088F09F5798F0B92F9927B751B0F0E1F091
:10085000660F771F881F991F1AF0BA95C9F714C041
:10086000B13091F00E94F804B1E008950C94F804BE
:10087000672F782F8827B85F39F0B93FCCF386957A
:1008800077956795B395D9F73EF4909580957095D7
:1008900061957F4F8F4F9F4F0895E89409C097FB54
:1008A0003EF490958095709561957F4F8F4F9F4F47
:1008B0009923A9F0F92F96E9BB279395F69587958B
:1008C00077956795B795F111F8CFFAF4BB0F11F44E
:1008D00060FF1BC06F5F7F4F8F4F9F4F16C08823F5
:1008E00011F096E911C0772321F09EE8872F762F2B
:1008F00005C0662371F096E8862F70E060E02AF06C
:100900009A95660F771F881FDAF7880F9695879557
:1009100097F90895990F0008550FAA0BE0E8FEEF2C
:1009200016161706E807F907C0F012161306E407B3
:10093000F50798F0621B730B840B950B39F40A26AC
:1009400061F0232B242B252B21F408950A2609F48A
:10095000A140A6958FEF811D811D089597F99F678E
:1009600080E870E060E008959FEF80EC0895002437
:100970000A941616170618060906089500240A9404
:1009800012161306140605060895092E0394000C8A
:1009900011F4882352F0BB0F40F4BF2B11F460FF19
:1009A00004C06F5F7F4F8F4F9F4F089557FD905842
:1009B000440F551F59F05F3F71F04795880F97FB23
:1009C000991F61F09F3F79F08795089512161306DD
:1009D0001406551FF2CF4695F1DF08C0161617060C
:1009E0001806991FF1CF8695710561050894089541
:1009F000E894BB2766277727CB0197F908950E94D3
:100A00008A0408F48FEF08950E9417050C94C5041A
:100A10000E94B70438F00E94BE0420F0952311F024
:100A20000C94AE040C94B40411240C94F9040E94A8
:100A3000D60470F3959FC1F3950F50E0551F629F48
:100A4000F001729FBB27F00DB11D639FAA27F00D27
:100A5000B11DAA1F649F6627B00DA11D661F829F4E
:100A60002227B00DA11D621F739FB00DA11D621F33
:100A7000839FA00D611D221F749F3327A00D611D50
:100A8000231F849F600D211D822F762F6A2F112432
:100A90009F5750409AF0F1F088234AF0EE0FFF1F65
:100AA000BB1F661F771F881F91505040A9F79E3FBC
:100AB000510580F00C94AE040C94F9045F3FE4F30C
:100AC000983ED4F3869577956795B795F795E79512
:100AD0009F5FC1F7FE2B880F911D9695879597F91B
:060AE0000895F894FFCF19
:0A0AE6007800C00023002400250062
:00000001FF
