:100000000C9434000C9449000C9449000C94490061
:100010000C9449000C9449000C9449000C9449003C
:100020000C9449000C9449000C9449000C9449002C
:100030000C9449000C9449000C9449000C9449001C
:100040000C9449000C9449000C9449000C9449000C
:100050000C9449000C9449000C9449000C944900FC
:100060000C9449000C94490011241FBECFEFD8E036
:10007000DEBFCDBF11E0A0E0B1E0EEEEF1E002C0E6
:1000800005900D92A430B107D9F70E94CE000C94D0
:10009000F5000C940000E0910001F091010180E472
:1000A000848387E882830895E0910001F091010143
:1000B0009481907F8F70892B848382818064828376
:1000C000828186FDFDCF8081218190E0922B089571
:1000D000E0910201F0910301158287E6848388E1B3
:1000E000818386E082830895E0910201F09103010B
:1000F000908195FFFDCF86830895CF93DF93EC0128
:100100008991882319F00E947400FACFDF91CF9172
:100110000895E0910201F0910301808187FFFDCFF6
:1001200086810895EF92FF920F931F93CF93DF93F1
:1001300000D000D000D0CDB7DEB7009711F480E337
:100140001FC09E012F5F3F4F7901F90100E010E0D1
:100150002AE030E00F5F1F4FB9010E94E100805D8F
:100160008193CB010097B1F70E0D1F1DE016F1062C
:1001700031F0F80182918F010E947400F7CF8AE07C
:1001800026960FB6F894DEBF0FBECDBFDF91CF919C
:100190001F910F91FF90EF900C9474000E944B0000
:1001A0000E94680082E00E9454000E9492002FEF9B
:1001B00089E698E1215080409040E1F700C00000BE
:1001C000F1CFAA1BBB1B51E107C0AA1FBB1FA6177B
:1001D000B70710F0A61BB70B881F991F5A95A9F7F0
:0E01E00080959095BC01CD010895F894FFCF55
:0401EE007800C000D5
:00000001FF
