:100000000C9434000C9449000C9449000C94490061
:100010000C9449000C9449000C9449000C9449003C
:100020000C9449000C9449000C9449000C9449002C
:100030000C9449000C9449000C9449000C9449001C
:100040000C9449000C9449000C9449000C9449000C
:100050000C9449000C9449000C9449000C944900FC
:100060000C9449000C94490011241FBECFEFD8E036
:10007000DEBFCDBF11E0A0E0B1E0EEE1FCE002C0E8
:1000800005900D92A430B107D9F70E94E0030C94BB
:100090000D060C940000E0910001F091010180E454
:1000A00084838281876882830895CF93DF931F9230
:1000B000CDB7DEB78983E0910001F0910101848121
:1000C00083628483828180648283828186FDFDCF06
:1000D0008081818190E00F90DF91CF910895CF933F
:1000E000DF931F92CDB7DEB7869586958983E98128
:1000F00068EC70E08DE298E0EC3308F045C0F0E089
:10010000EA57FF4F68EC70E00C942704C200C90066
:10011000CC00CF00D200D500D800DB00DE00E1002B
:10012000E400E700EA00ED00F000F300F600F9005B
:10013000FC00FF000201050108010B010E01110185
:10014000140117011A011D012001230126012901B3
:100150002C012F013201350138013B013E014101E3
:10016000440147014A014D01500153015601590113
:100170005C015F016201650168016B016E01710143
:100180007401770181E490E00F90DF91CF910C949E
:100190009D0185E490E0F8CF89E490E0F5CF8EE40E
:1001A00090E0F2CF82E590E0EFCF87E590E0ECCFF2
:1001B0008DE590E0E9CF82E690E0E6CF88E690E03A
:1001C000E3CF8EE690E0E0CF85E790E0DDCF8BE7F0
:1001D00090E0DACF83E890E0D7CF8BE890E0D4CFFF
:1001E00083E990E0D1CF8CE990E0CECF85EA90E032
:1001F000CBCF8FEA90E0C8CF89EB90E0C5CF84ECFD
:1002000090E0C2CF80ED90E0BFCF8CED90E0BCCF0E
:1002100089EE90E0B9CF87EF90E0B6CF86E091E02D
:10022000B3CF85E191E0B0CF86E291E0ADCF87E337
:1002300091E0AACF8AE491E0A7CF8DE591E0A4CF29
:1002400082E791E0A1CF88E891E09ECF8FE991E02D
:100250009BCF88EB91E098CF82ED91E095CF8EEE29
:1002600091E092CF8BE092E08FCF8AE292E08CCF48
:100270008BE492E089CF8EE692E086CF83E992E02C
:1002800083CF8AEB92E080CF84EE92E07DCF80E155
:1002900093E07ACF8FE393E077CF80E793E074CF5A
:1002A00084EA93E071CF8CED93E06ECF87E194E028
:1002B0006BCF85E594E068CF87E994E065CF8DED5D
:1002C00094E062CF87E295E05FCF85E795E05CCF71
:1002D00088EC95E059CF80E296E056CF8DE796E026
:1002E00053CF80EE96E050CF89E497E04DCF88EB76
:1002F00097E04ACFE0910201F0910301158287E671
:10030000848386E2828388E181830895E0910201FB
:10031000F0910301908195FFFDCF86830895E091D0
:100320000201F0910301808187FFFDCF868108954E
:1003300064E084E290E00C947F032F923F924F920E
:100340005F926F927F928F929F92AF92BF92CF9265
:10035000DF92EF92FF920F931F93CF93DF93CDB76E
:10036000DEB76C970FB6F894DEBF0FBECDBF9A878D
:1003700089877C876B8789859A85892B09F05DC081
:100380006B857C85072E000C880B990B0E94EB0473
:100390004B015C0120E030E04AE755E40E94A005F3
:1003A0006B017C0120E030E040E85FE30E94430401
:1003B00087FD40C020E03FEF4FE757E4C701B6019B
:1003C0000E949B05181674F520E030E040E251E4ED
:1003D000C501B4010E94A0050E94BA0420E931E0E1
:1003E00061157105C9F46C960FB6F894DEBF0FBEA7
:1003F000CDBFDF91CF911F910F91FF90EF90DF90D4
:10040000CF90BF90AF909F908F907F906F905F90B4
:100410004F903F902F900895C9010197F1F76150D7
:100420007109DECFC701B6010E94BA04CB01019762
:10043000F1F7D9CF61E070E0F9CF29853A85032E35
:10044000000C440B550B60E271EA87E090E00E94DB
:100450000504298B3A8B4B8B5C8BAB85BC8528EED6
:1004600033E00E943C046D837E838F8398871982DA
:100470001A821B821C8229893A894B895C89220F46
:10048000331F441F551F298F3A8F4B8F5C8F90E984
:10049000292E3324339449815A816B817C818D814B
:1004A0009E81AF81B885481759076A077B0708F016
:1004B0009ACF64E085E290E00E947F0369897A899F
:1004C0008B899C890E94E9044B015C012BEA3AEA82
:1004D0004AEA50E40E94A0056B017C0120E030E074
:1004E00040E850E4C501B4010E94A0052B013C0185
:1004F00020E030E040E85FE3C701B6010E9443041A
:1005000087FDC0C020E03FEF4FE757E4C301B201D1
:100510000E949B0518160CF04FC020E030E04AE71F
:1005200054E4C501B4010E9448046D8B7E8B8F8B0F
:10053000988F20E030E04AE755E40E94A0056D87DF
:100540007E878F87988B20E030E040E85FE30E9451
:10055000430487FD2EC020E03FEF4FE757E46D8551
:100560007E858F8598890E949B051816C4F420E02B
:1005700030E040E251E46D897E898F89988D0E9438
:10058000A0050E94BA046115710519F41A95F1F7D6
:1005900025C0C1010197F1F761507109F4CF6D8554
:1005A0007E858F8598890E94BA04CB010197F1F767
:1005B000EDCF61E070E0F9CF20E030E04FE753E4A9
:1005C000C701B6010E949B0518160CF055C0C30167
:1005D000B2010E94BA04CB010197F1F764E085E211
:1005E00090E00E948E0320E030E040E85FE3C70126
:1005F000B6010E94430487FD80C020E03FEF4FE733
:1006000057E4C301B2010E949B0518160CF04DC0BF
:1006100020E030E04AE754E4C501B4010E944804F8
:100620004B015C0120E030E04AE755E40E94A00560
:100630006B017C0120E030E040E85FE30E9443046E
:1006400087FD30C020E03FEF4FE757E4C701B60118
:100650000E949B051816F4F420E030E040E251E4DB
:10066000C501B4010E94A0050E94BA04611571057C
:1006700059F40A95F1F72AC0C701B6010E94BA04DD
:10068000162F84CF11E082CFC1010197F1F761509D
:100690007109ECCFC701B6010E94BA04CB010197E2
:1006A000F1F7E7CF61E070E0F9CF20E030E04FE70D
:1006B00053E4C701B6010E949B051816C4F4C30198
:1006C000B2010E94BA04CB010197F1F789819A81A6
:1006D000AB81BC81298D3A8D4B8D5C8D820F931F30
:1006E000A41FB51F89839A83AB83BC83D4CEC70173
:1006F000B6010E94BA04062FBCCF01E0BACFCF9357
:10070000DF931F92CDB7DEB7FC01698389819081A9
:10071000982B90830F90DF91CF910895CF93DF9323
:100720001F92CDB7DEB7FC016983998180819095D6
:10073000982390830F90DF91CF910895259A089583
:100740002D9A08952D980895CF93DF93CDB7DEB7F6
:100750002A970FB6F894DEBF0FBECDBF9A87898760
:1007600029853A85A7E6B1E00E942D0469837A8342
:100770008B839C831D821E821F8218864D815E8121
:100780006F81788589819A81AB81BC81481759072F
:100790006A077B0748F02A960FB6F894DEBF0FBEB3
:1007A000CDBFDF91CF9108958D819E81AF81B885B6
:1007B0000196A11DB11D8D839E83AF83B887DECFC7
:1007C0000E944B000E947A010E94980183E70E94D8
:1007D000860184E70E94860181E60E94860182E705
:1007E0000E94860184E70E9486018DE00E948601B6
:1007F0008AE00E94860183E00E9455000E946F00FB
:1008000084EF91E00E94A403F6CFA1E21A2EAA1B66
:10081000BB1BFD010DC0AA1FBB1FEE1FFF1FA217B0
:10082000B307E407F50720F0A21BB30BE40BF50BAD
:10083000661F771F881F991F1A9469F76095709536
:10084000809590959B01AC01BD01CF010895EE0FFD
:10085000FF1F0590F491E02D0994A29FB001B39F72
:10086000C001A39F700D811D1124911DB29F700DB9
:10087000811D1124911D08950E942D04B7FF089534
:10088000821B930B08950E94260508F481E00895C9
:100890000E945C040C9461050E945A0558F00E9465
:1008A000530540F029F45F3F29F00C944A0551119B
:1008B0000C9495050C9450050E94720568F39923D9
:1008C000B1F3552391F3951B550BBB27AA2762174C
:1008D0007307840738F09F5F5F4F220F331F441F59
:1008E000AA1FA9F335D00E2E3AF0E0E832D091508D
:1008F0005040E695001CCAF72BD0FE2F29D0660F7A
:10090000771F881FBB1F261737074807AB07B0E8BC
:1009100009F0BB0B802DBF01FF2793585F4F3AF0C2
:100920009E3F510578F00C944A050C9495055F3F65
:10093000E4F3983ED4F3869577956795B795F79548
:100940009F5FC9F7880F911D9695879597F9089530
:10095000E1E0660F771F881FBB1F621773078407CC
:10096000BA0720F0621B730B840BBA0BEE1F88F7DB
:10097000E09508950E947A0588F09F5798F0B92F66
:100980009927B751B0F0E1F0660F771F881F991FC4
:100990001AF0BA95C9F714C0B13091F00E949405CD
:1009A000B1E008950C949405672F782F8827B85FDD
:1009B00039F0B93FCCF3869577956795B395D9F71C
:1009C0003EF490958095709561957F4F8F4F9F4F26
:1009D0000895E89409C097FB3EF490958095709532
:1009E00061957F4F8F4F9F4F9923A9F0F92F96E97B
:1009F000BB279395F695879577956795B795F111F0
:100A0000F8CFFAF4BB0F11F460FF1BC06F5F7F4F8C
:100A10008F4F9F4F16C0882311F096E911C077239E
:100A200021F09EE8872F762F05C0662371F096E8A7
:100A3000862F70E060E02AF09A95660F771F881F76
:100A4000DAF7880F9695879597F90895990F00081A
:100A5000550FAA0BE0E8FEEF16161706E807F90790
:100A6000C0F012161306E407F50798F0621B730B2B
:100A7000840B950B39F40A2661F0232B242B252BAC
:100A800021F408950A2609F4A140A6958FEF811D4F
:100A9000811D089597F99F6780E870E060E00895F0
:100AA0009FEF80EC089500240A9416161706180686
:100AB0000906089500240A94121613061406050662
:100AC0000895092E0394000C11F4882352F0BB0FF3
:100AD00040F4BF2B11F460FF04C06F5F7F4F8F4F56
:100AE0009F4F089557FD9058440F551F59F05F3F91
:100AF00071F04795880F97FB991F61F09F3F79F040
:100B000087950895121613061406551FF2CF4695C1
:100B1000F1DF08C0161617061806991FF1CF869543
:100B20007105610508940895E894BB276627772727
:100B3000CB0197F908950E94260508F48FEF0895D8
:100B40000E94B3050C9461050E94530538F00E9481
:100B50005A0520F0952311F00C944A050C94500589
:100B600011240C9495050E94720570F3959FC1F3B2
:100B7000950F50E0551F629FF001729FBB27F00D4B
:100B8000B11D639FAA27F00DB11DAA1F649F6627A0
:100B9000B00DA11D661F829F2227B00DA11D621FEF
:100BA000739FB00DA11D621F839FA00D611D221FA9
:100BB000749F3327A00D611D231F849F600D211D8D
:100BC000822F762F6A2F11249F5750409AF0F1F010
:100BD00088234AF0EE0FFF1FBB1F661F771F881F79
:100BE00091505040A9F79E3F510580F00C944A0562
:100BF0000C9495055F3FE4F3983ED4F38695779582
:100C00006795B795F795E7959F5FC1F7FE2B880F1E
:0E0C1000911D9695879597F90895F894FFCF5A
:040C1E007800C0009A
:00000001FF
