:100000000C9434000C9449000C9449000C94490061
:100010000C9449000C9449000C9449000C9449003C
:100020000C9449000C9449000C9449000C9449002C
:100030000C9449000C9449000C9449000C9449001C
:100040000C9449000C9449000C9449000C9449000C
:100050000C9449000C9449000C9449000C944900FC
:100060000C9449000C94490011241FBECFEFD8E036
:10007000DEBFCDBF11E0A0E0B1E0EEE8FBE002C0E2
:1000800005900D92AC30B107D9F70E942C030C9467
:10009000C5050C940000E0910201F09103018081FC
:1000A0008061808308952F923F924F925F926F926A
:1000B0007F928F929F92AF92BF92CF92DF92EF92F8
:1000C000FF920F931F93CF93DF93CDB7DEB7CC573B
:1000D000D1090FB6F894DEBF0FBECDBFE1967FAF5A
:1000E0006EAFE1979C01990F440B550B60E472E4ED
:1000F0008FE090E00E94370369017A01A9015695CB
:10010000479528EE33E0E196AEADBFADE1970E9492
:100110005603E3966CAF7DAF8EAF9FAFE397412C54
:10012000512C3201CA01A0E0B0E0E7968CAF9DAF40
:10013000AEAFBFAFE797D701C601AA27BB27EB96A3
:100140008CAF9DAFAEAFBFAFEB97E3968CAD9DADDF
:10015000AEADBFADE397481659066A067B06D0F0F0
:10016000C458DF4F0FB6F894DEBF0FBECDBFDF918E
:10017000CF911F910F91FF90EF90DF90CF90BF90A4
:10018000AF909F908F907F906F905F904F903F9037
:100190002F900895E0910401F09105018081806124
:1001A0008083E7966CAD7DAD8EAD9FADE7970E94E5
:1001B000A1046B017C012BEA3AEA4AE250E469832C
:1001C000DA828B83FC8269817A818B819C810E9497
:1001D00058058B01ED968FAFED97EC969FAFEC979E
:1001E000CD82DE82EF82F8862D813E814F81588557
:1001F000C986DA86EB86FC8669857A858B859C853F
:100200000E948F035B014C0120E030E040E85FE397
:100210000D871E87ED969FADED979F87EC96AFAD4E
:10022000EC97A88B6D857E858F8598890E94FB034E
:1002300087FD9BC120E03FEF4FE757E4A98ABA8AC8
:100240008B8A9C8A69897A898B899C890E9453054B
:1002500018160CF058C120E030E04AE754E4CD8A8B
:10026000DE8AEF8AF88E6D897E898F89988D0E944B
:1002700000041B01A6968FAFA697A7969FAFA797DE
:1002800020E030E04AEF54E4698F3A8E8B8F9C8FE8
:10029000698D7A8D8B8D9C8D0E945805A8966FAFC5
:1002A000A897A9967FAFA997AA968FAFAA97AB9662
:1002B0009FAFAB9720E03FEF4FE757E46D8F7E8F06
:1002C0008F8F98A36D8D7E8D8F8D98A10E94530581
:1002D00018160CF0FEC020E030E040E251E429A204
:1002E0003AA2A6968FADA6978BA3A7969FADA79788
:1002F0009CA369A17AA18BA19CA10E9458056DA322
:100300007EA38FA398A76DA17EA18FA198A50E941F
:100310007204AC966FAFAC97AD967FAFAD97AD96CC
:100320008EAD9FADAD9728EC30E0009709F0CCC0C2
:10033000E0910401F091050180818F7E808320E0AF
:1003400030E040E85FE309AF1AAFED96AFADED974F
:10035000ABAFEC96BFADEC97BCAF69AD7AAD8BADF2
:100360009CAD0E94FB0387FD75C120E03FEF4FE786
:1003700057E4ADAEBEAE8FAE21969FAE21972196CB
:100380006CAD7DAD8EAD9FAD21970E9453051816C3
:100390000CF010C120E030E04AE754E42296CFAEE2
:1003A00022972396DFAE23972496EFAE24972596C7
:1003B000FFAE259725966CAD7DAD8EAD9FAD259793
:1003C0000E9400046B017C0120E030E04AEF54E41D
:1003D00026966FAF26972796DFAE279728968FAF82
:1003E00028972996FFAE299729966CAD7DAD8EADE5
:1003F0009FAD29970E9458058B01A7968FAFA797AD
:10040000A6969FAFA69720E03FEF4FE757E42A96C6
:100410006FAF2A972B961FAF2B972C968FAF2C97E9
:100420002D969FAF2D972D966CAD7DAD8EAD9FAD6A
:100430002D970E94530518160CF09EC020E030E066
:1004400040E251E42E96CFAE2E972F96DFAE2F9737
:100450006096EFAE60976196FFAE619761966CAD66
:100460007DAD8EAD9FAD61970E94580562966FAFCE
:10047000629763967FAF639764968FAF6497659634
:100480009FAF659765966CAD7DAD8EAD9FAD659761
:100490000E947204AE966FAFAE97AF967FAFAF97E4
:1004A000AF968EAD9FADAF9728EC30E0009709F086
:1004B0005EC0EB968CAD9DADAEADBFADEB97480E7B
:1004C000591E6A1E7B1E41CEF9013197F1F7019743
:1004D0002CCFA896AFADA897A9A7A996BFADA9970D
:1004E000BAA7AA968FADAA978BA7AB969FADAB97ED
:1004F0009CA769A57AA58BA59CA50E947204CB0137
:100500000197F1F715CF20E030E04FE753E40DA756
:100510001EA7ED96AFADED97AFA7EC96BFADEC97EC
:10052000B8AB6DA57EA58FA598A90E945305181696
:100530004CF4A9AABAAA8BAA9CAA69A97AA98BA9E0
:100540009CA9DBCF0DAB1EABED968FADED978FABBE
:10055000EC969FADEC9798AF6DA97EA98FA998AD49
:100560000E9472046A95F1F7E3CE61E0FBCFF901D6
:100570003197F1F701979ACF66960FAF6697679616
:100580001FAF6797A7968FADA79768968FAF6897AD
:10059000A6969FADA69769969FAF699769966CAD31
:1005A0007DAD8EAD9FAD69970E947204CB0101971E
:1005B000F1F77FCF20E030E04FE753E46A960FAFCA
:1005C0006A976B961FAF6B97ED96AFADED976C96F4
:1005D000AFAF6C97EC96BFADEC976D96BFAF6D97D4
:1005E0006D966CAD7DAD8EAD9FAD6D970E94530540
:1005F00018169CF46E96AFAE6E976F96BFAE6F975F
:10060000A0968FAEA097A1969FAEA197A1966CAD34
:100610007DAD8EAD9FADA197C7CFA2960FAFA2972C
:10062000A3961FAFA397ED968FADED97A4968FAFCE
:10063000A497EC969FADEC97A5969FAFA597A5962E
:100640006CAD7DAD8EAD9FADA5970E9472046A958D
:10065000F1F72FCF61E0FBCF0E944B0060ED77E018
:1006600084EF91E00E94530080E090E00895052E11
:1006700097FB1EF400940E944E0357FD07D00E9482
:100680005D0307FC03D04EF40C944E035095409547
:10069000309521953F4F4F4F5F4F0895909580952E
:1006A000709561957F4F8F4F9F4F08950E947F03F4
:1006B000B7FF0895821B930B0895A1E21A2EAA1B7F
:1006C000BB1BFD010DC0AA1FBB1FEE1FFF1FA21702
:1006D000B307E407F50720F0A21BB30BE40BF50BFF
:1006E000661F771F881F991F1A9469F76095709588
:1006F000809590959B01AC01BD01CF010895A29F0B
:10070000B001B39FC001A39F700D811D1124911DE5
:10071000B29F700D811D1124911D08955058BB2763
:10072000AA270E94A6030C9419050E940B0538F015
:100730000E94120520F039F49F3F19F426F40C941E
:1007400008050EF4E095E7FB0C940205E92F0E94E2
:100750002A0558F3BA17620773078407950720F034
:1007600079F4A6F50C944C050EF4E0950B2EBA2FF7
:10077000A02D0B01B90190010C01CA01A0011124A7
:10078000FF27591B99F0593F50F4503E68F11A1653
:10079000F040A22F232F342F4427585FF3CF4695E4
:1007A00037952795A795F0405395C9F77EF41F1606
:1007B000BA0B620B730B840BBAF09150A1F0FF0FD0
:1007C000BB1F661F771F881FC2F70EC0BA0F621FBC
:1007D000731F841F48F4879577956795B795F795AC
:1007E0009E3F08F0B0CF9395880F08F09927EE0F41
:1007F0009795879508950E94DE0408F481E0089596
:100800000E9414040C9419050E94120558F00E94CD
:100810000B0540F029F45F3F29F00C9402055111BB
:100820000C944D050C9408050E942A0568F3992341
:10083000B1F3552391F3951B550BBB27AA276217DC
:100840007307840738F09F5F5F4F220F331F441FE9
:10085000AA1FA9F335D00E2E3AF0E0E832D091501D
:100860005040E695001CCAF72BD0FE2F29D0660F0A
:10087000771F881FBB1F261737074807AB07B0E84D
:1008800009F0BB0B802DBF01FF2793585F4F3AF053
:100890009E3F510578F00C9402050C944D055F3F86
:1008A000E4F3983ED4F3869577956795B795F795D9
:1008B0009F5FC9F7880F911D9695879597F90895C1
:1008C000E1E0660F771F881FBB1F6217730784075D
:1008D000BA0720F0621B730B840BBA0BEE1F88F76C
:1008E000E09508950E94320588F09F5798F0B92F3F
:1008F0009927B751B0F0E1F0660F771F881F991F55
:100900001AF0BA95C9F714C0B13091F00E944C05A5
:10091000B1E008950C944C05672F782F8827B85FB5
:1009200039F0B93FCCF3869577956795B395D9F7AC
:100930003EF490958095709561957F4F8F4F9F4FB6
:100940000895E89409C097FB3EF4909580957095C2
:1009500061957F4F8F4F9F4F9923A9F0F92F96E90B
:10096000BB279395F695879577956795B795F11180
:10097000F8CFFAF4BB0F11F460FF1BC06F5F7F4F1D
:100980008F4F9F4F16C0882311F096E911C077232F
:1009900021F09EE8872F762F05C0662371F096E838
:1009A000862F70E060E02AF09A95660F771F881F07
:1009B000DAF7880F9695879597F90895990F0008AB
:1009C000550FAA0BE0E8FEEF16161706E807F90721
:1009D000C0F012161306E407F50798F0621B730BBC
:1009E000840B950B39F40A2661F0232B242B252B3D
:1009F00021F408950A2609F4A140A6958FEF811DE0
:100A0000811D089597F99F6780E870E060E0089580
:100A10009FEF80EC089500240A9416161706180616
:100A20000906089500240A941216130614060506F2
:100A30000895092E0394000C11F4882352F0BB0F83
:100A400040F4BF2B11F460FF04C06F5F7F4F8F4FE6
:100A50009F4F089557FD9058440F551F59F05F3F21
:100A600071F04795880F97FB991F61F09F3F79F0D0
:100A700087950895121613061406551FF2CF469552
:100A8000F1DF08C0161617061806991FF1CF8695D4
:100A90007105610508940895E894BB2766277727B8
:100AA000CB0197F908950E94DE0408F48FEF0895B2
:100AB0000E946B050C9419050E940B0538F00E94EA
:100AC000120520F0952311F00C9402050C940805F2
:100AD00011240C944D050E942A0570F3959FC1F3D3
:100AE000950F50E0551F629FF001729FBB27F00DDC
:100AF000B11D639FAA27F00DB11DAA1F649F662731
:100B0000B00DA11D661F829F2227B00DA11D621F7F
:100B1000739FB00DA11D621F839FA00D611D221F39
:100B2000749F3327A00D611D231F849F600D211D1D
:100B3000822F762F6A2F11249F5750409AF0F1F0A0
:100B400088234AF0EE0FFF1FBB1F661F771F881F09
:100B500091505040A9F79E3F510580F00C9402053A
:100B60000C944D055F3FE4F3983ED4F3869577955A
:100B70006795B795F795E7959F5FC1F7FE2B880FAF
:0E0B8000911D9695879597F90895F894FFCFEB
:0C0B8E002600270028002300240025007A
:00000001FF
