:100000000C9434000C9451000C9451000C94510049
:100010000C9451000C9451000C9451000C9451001C
:100020000C9451000C9451000C9451000C9451000C
:100030000C9451000C9451000C9451000C945100FC
:100040000C9451000C9451000C9451000C945100EC
:100050000C9451000C9451000C9451000C945100DC
:100060000C9451000C94510011241FBECFEFD8E026
:10007000DEBFCDBF11E0A0E0B1E0EAE8FEE002C0E3
:1000800005900D92AC31B107D9F721E0ACE1B1E0B8
:1000900001C01D92A038B207E1F70E9484020C94BF
:1000A000C6060C940000E0910201F09103018081EA
:1000B00084608083E0910201F09103018081877F59
:1000C0008083E0910801F091090180818F60808335
:1000D000E0910A01F0910B0110820895E091040172
:1000E000F09105018081846080838AE18A95F1F72F
:1000F000E0910401F091050180818B7F8083089558
:10010000E0910001F09101018081887090E00895F4
:100110001F93CF93DF930E946E000E948000892B73
:10012000E1F3CFEFDFEF12E00E948000892B51F462
:10013000CE016AE370E00E94B902CB01DF91CF915A
:100140001F910895812F8A95F1F72196EDCFE091C7
:100150000A01F0910B0180830895E0910C01F09168
:100160000D01808180780895E0910C01F0910D01DE
:10017000158287E6848386E0828388E181830895FF
:10018000E0910C01F0910D01908195FFFDCF8683E8
:100190000895E0910C01F0910D01808187FFFDCF62
:1001A00086810895CF93DF93EC018991882319F01C
:1001B0000E94C000FACFDF91CF910895AC0181E099
:1001C00090E020E030E0261737075CF4FC01E49F64
:1001D000C001E59F900DF49F900D11242F5F3F4FBC
:1001E000F2CF0895CF92DF92EF92FF92CF93DF93F9
:1001F0006C01EB0161E070E080E090E0E0E0F0E0B5
:100200000D2C000CEE08FF08EC17FD0744F49B01D1
:10021000AC01C701B6010E94A9023196F5CFDF916A
:10022000CF91FF90EF90DF90CF900895CF92DF9223
:10023000EF92FF921F93CF93DF93CDB7DEB727974F
:100240000FB6F894DEBF0FBECDBF9C01AB0141508D
:100250005109EE24E394F12C80E090E0EAE0841769
:10026000950744F4D701EA9F7001EB9FF00C11242D
:100270000196F5CF37FD03C0462F10E008C08DE290
:10028000898331952195310941E0460F11E08AE0DB
:10029000C82ED12C812F012E000C990BE1E0F0E04B
:1002A000EC0FFD1FE80FF91F141774F4C901B70113
:1002B0000E94B902605D60839C01C701B6010E9483
:1002C000B9027B011F5FE6CF1082CE0101960E942A
:1002D000D20027960FB6F894DEBF0FBECDBFDF91D8
:1002E000CF911F91FF90EF90DF90CF9008952F92C4
:1002F0003F924F925F926F927F928F929F92AF92B6
:10030000BF92CF92DF92EF92FF920F931F93CF9302
:10031000DF93CDB7DEB72C970FB6F894DEBF0FBED4
:10032000CDBF6B877C87782E692E8A015A0181E0C8
:10033000A81AB108C12CD12C7601C394E0E0F0E0FA
:10034000EA15FB0554F4AAE0B0E0A70196010E946B
:10035000EC026B017C013196F3CFFE0131965F0117
:100360004F018AE0282E312C412C512CC4018A19CE
:100370009B0980179107CCF46B857C85872D962D82
:10038000A70196010E94CD02205DF40121934F0147
:100390006B877C87782E692EC701B601A201910177
:1003A0000E94CD0269017A01E1CF17FF02C000E08F
:1003B00010E0F501E00FF11F1082C5010E94D2008C
:1003C0002C960FB6F894DEBF0FBECDBFDF91CF9154
:1003D0001F910F91FF90EF90DF90CF90BF90AF9063
:1003E0009F908F907F906F905F904F903F902F9055
:1003F0000895BF92CF92DF92EF92FF920F931F93D7
:10040000CF93DF93CDB7DEB72A970FB6F894DEBF50
:100410000FBECDBF20E030E048EC52E40E949B03C9
:100420000E943C03362F272FFE0131967E0184E087
:10043000E80EF11C04E610E0BE2E4F2F8AE0C82E15
:10044000D12C832F922FB8010E94B902605D619375
:10045000382F292FC801B6010E94B9028B01EE1571
:10046000FF0579F71C828B2D942F0E94D2002A96CB
:100470000FB6F894DEBF0FBECDBFDF91CF911F91B5
:100480000F91FF90EF90DF90CF90BF9008950F9362
:100490001F93CF93DF93CDB7DEB7C055D1090FB609
:1004A000F894DEBF0FBECDBF8E010F5F1F4F0E94BD
:1004B0003004C8010E94D200C05BDF4F0FB6F89431
:1004C000DEBF0FBECDBFDF91CF911F910F91089579
:1004D000CF93DF930E94C900CCE1D1E09E012C5163
:1004E00031408D3041F08A3031F0882321F08993FA
:1004F0000E94C900F3CFF901E45EFE4F10828CE147
:1005000091E0DF91CF9108950E94B4000E945300C2
:100510008EE091E00E94D20064E070E088E090E01C
:100520000E941601C8ECD0E08EE091E00E94D2005B
:100530000E9488000A975CF48FE00E94A70088EE72
:1005400093E0FE013197F1F70197D9F7EDCF80E005
:10055000F4CFDB018F939F930E94EC02BF91AF9188
:10056000A29F800D911DA39F900DB29F900D11240D
:10057000089597FB072E16F4009407D077FD09D055
:100580000E94F70207FC05D03EF4909581959F4F9D
:100590000895709561957F4F0895052E97FB1EF481
:1005A00000940E94E40257FD07D00E940B0307FC51
:1005B00003D04EF40C94E40250954095309521956B
:1005C0003F4F4F4F5F4F089590958095709561957F
:1005D0007F4F8F4F9F4F08950E942D03A59F900D31
:1005E000B49F900DA49F800D911D11240895AA1B06
:1005F000BB1B51E107C0AA1FBB1FA617B70710F00E
:10060000A61BB70B881F991F5A95A9F7809590953F
:10061000BC01CD010895A1E21A2EAA1BBB1BFD014E
:100620000DC0AA1FBB1FEE1FFF1FA217B307E407D1
:10063000F50720F0A21BB30BE40BF50B661F771F29
:10064000881F991F1A9469F7609570958095909509
:100650009B01AC01BD01CF010895A29FB001B39FE2
:10066000C001A39F700D811D1124911DB29F700DBB
:10067000811D1124911D08950E9443036894B111B6
:100680000C94950308950E947A0388F09F5798F080
:10069000B92F9927B751B0F0E1F0660F771F881F87
:1006A000991F1AF0BA95C9F714C0B13091F00E94A1
:1006B0009403B1E008950C949403672F782F882752
:1006C000B85F39F0B93FCCF3869577956795B395C8
:1006D000D9F73EF490958095709561957F4F8F4F37
:1006E0009F4F089557FD9058440F551F59F05F3F95
:1006F00071F04795880F97FB991F61F09F3F79F044
:1007000087950895121613061406551FF2CF4695C5
:10071000F1DF08C0161617061806991FF1CF869547
:100720007105610508940895E894BB27662777272B
:10073000CB0197F908950E94AE030C941F040E9408
:10074000110438F00E94180420F0952311F00C9445
:1007500008040C940E0411240C9495030E94720357
:1007600070F3959FC1F3950F50E0551F629FF00104
:10077000729FBB27F00DB11D639FAA27F00DB11D1D
:10078000AA1F649F6627B00DA11D661F829F2227A6
:10079000B00DA11D621F739FB00DA11D621F839F2D
:1007A000A00D611D221F749F3327A00D611D231F03
:1007B000849F600D211D822F762F6A2F11249F5751
:1007C00050409AF0F1F088234AF0EE0FFF1FBB1F54
:1007D000661F771F881F91505040A9F79E3F510513
:1007E00080F00C9408040C9495035F3FE4F3983E6A
:1007F000D4F3869577956795B795F795E7959F5FBD
:10080000C1F7FE2B880F911D9695879597F908954E
:1008100097F99F6780E870E060E008959FEF80ECB3
:10082000089500240A941616170618060906089556
:1008300000240A9412161306140605060895092EBC
:100840000394000C11F4882352F0BB0F40F4BF2B2B
:1008500011F460FF04C06F5F7F4F8F4F9F4F08956B
:100860008F929F92AF92BF92EF920F931F93CF936D
:10087000322FC02F54E147FF54E0242F27FD21954C
:10088000E52E032F4C2F512F4B015C01C501B40104
:100890000E9455048C2F912FCF911F910F91EF90B3
:1008A000BF90AF909F908F900895A0E1B0E0EBE5EE
:1008B000F4E00C948F066A01122FF02E202F3CE3F7
:1008C000031708F02BE32F5F288B022F27E0AE01E0
:1008D0004F5F5F4F6C877D878E879F876C857D8597
:1008E0008E859F850E94B7055C019981892F89704B
:1008F000813039F0E0FA882785F9E1FE03C08BE208
:1009000001C08DE2292F2870BE2DB07193FF44C025
:1009100094E0811101C093E09117C8F4191BB1153F
:1009200019F1811519F0F60181936F01C601039643
:1009300031E62EE6E2FE02C031E42EE4F601208329
:1009400031832283212F382F492F50E219C010E024
:10095000E6CFF90141932F0191509F019111F9CFF9
:10096000C10ED11C10E0DDCF912F960140E2F6CFF1
:10097000632E742EF30151933F0121503E2F472DDA
:100980002111F6CF810F911DFC0110828EEF9FEF98
:100990006096E2E10C94AB06A92FA47092FF3EC0D2
:1009A00094E0811101C093E0911710F4212F291BCD
:1009B000B11529F1811519F0F60181936F01C60176
:1009C000039659E64EE636E6E2FE03C059E44EE4ED
:1009D00036E4F601508341833283322FAC0160E26A
:1009E00018C0832E942EF40151934F0191503E2F45
:1009F000492D9111F6CFC20ED11C20E0DBCF922FF2
:100A00003C2D4D2D50E2F5CFFA0161931F0131507D
:100A1000AF013111F9CF820F911DB6CF9501B7FE0D
:100A200002C020E030E061E070E0811102C060E0CF
:100A300070E0A9014F5F5F4F460F571F6F2D70E0A9
:100A4000FB013196F11002C0E0E0F0E04E0F5F1FB5
:100A50004117510514F4A12FA41B4E2D48714111CB
:100A600055C0F6014A2F50E241114DC0CA0ED11CAB
:100A7000A0E0811531F0F6018193A42F6F01B1112F
:100A800008C0F6018A2F40E3811145C0CA0ED11C6F
:100A9000A0E088898A0D5A81B92FB07194FF03C0F4
:100AA000513309F481501816CCF5893008F088E0EC
:100AB000FE013196EA0DFB1D4F01821A930A750162
:100AC000E81AF1087195619571091EE2A216B30644
:100AD0003CF1E216F30624F5F4014181215031097D
:100AE000C6010196FFEF8F1A9F0A26173707D4F029
:100AF000F60140832F3F320721F4C6010296F6012A
:100B000011836C01E3CF51934150AECF811509F4AD
:100B1000B6CF4A2FB0CF41938150B6CF81E0C8CF36
:100B200040E3DCCFA216B30631F4563398F45533C4
:100B300011F4B11579F0F60140832A2F382F492F8F
:100B400050E2211109C08A0F911DFC01108280E042
:100B500090E01ECF41E3EFCF3A874B87EA85FB85D4
:100B60005193FB87EA8721503A854B85EACF28309D
:100B700008F027E03327DA01990F311D87FD9160D6
:100B800000966105710539F432602E5F3D9330E3C4
:100B90002A95E1F708959F3F30F08038710561058F
:100BA00009F03C5F3C5F3D93913008F08068911DF7
:100BB000DF93CF931F930F93FF92EF92192F987F9C
:100BC0009695E92F96959695E90FFF27E651F24FF6
:100BD00099273327EE24FF24A701E7010590089405
:100BE000079428F4360FE71EF81E491F511D660FA3
:100BF000771F881F991F0694A1F70590079428F482
:100C0000E70EF81E491F561FC11D770F881F991F39
:100C1000661F0694A1F70590079428F4F80E491F63
:100C2000561FC71FD11D880F991F661F771F069477
:100C3000A1F70590079420F4490F561FC71FD81F2E
:100C4000990F661F771F881F0694A9F78491109546
:100C5000177041F0D695C79557954795F794E79447
:100C60001A95C1F7E0E9FDE068941590159135916A
:100C70006591959105907FE27395E118F10A430B18
:100C8000560BC90BD009C0F7E10CF11E431F561FCC
:100C9000C91FD01D7EF4703311F48A95E6CFE89415
:100CA000015030F0080F0AF40027021708F4202F33
:100CB0002395022F7A3328F079E37D932A95E9F77B
:100CC00010C07D932A9589F6069497956795379578
:100CD00017951794E118F10A430B560BC90BD0096D
:100CE00098F023957E9173957A3308F070E37C93A6
:100CF0002013B8F77E9170617D9330F0839571E396
:100D00007D9370E32A95E1F71124EF90FF900F9106
:100D10001F91CF91DF91992787FD909508952F928C
:100D20003F924F925F926F927F928F929F92AF927B
:100D3000BF92CF92DF92EF92FF920F931F93CF93C8
:100D4000DF93CDB7DEB7CA1BDB0B0FB6F894DEBF5F
:100D50000FBECDBF09942A88398848885F846E8485
:100D60007D848C849B84AA84B984C884DF80EE80CF
:100D7000FD800C811B81AA81B981CE0FD11D0FB6D8
:100D8000F894DEBF0FBECDBFED010895F894FFCFFC
:100D900000407A10F35A00A0724E18090010A5D432
:100DA000E80000E87648170000E40B54020000CA8F
:100DB0009A3B000000E1F5050000809698000000D5
:100DC00040420F000000A086010000001027000034
:100DD0000000E803000000006400000000000A00BA
:100DE000000000000100000000002C76D888DC67BD
:100DF0004F0823DFC1DFAE59E1B1B796E5E3E45315
:100E0000C63AE651997696E8E6C28426EB898C9B31
:100E100062ED407C6FFCEFBC9C9F40F2BAA56FA5D1
:100E2000F490055A2AF75C936B6CF9676DC11BFC53
:100E3000E0E40D47FEF520E6B500D0ED902E03006E
:100E4000943577050080841E080000204E0A0000BB
:100E500000C80C333333330F986E12831141EF8D7A
:100E60002114893BE65516CFFEE6DB18D1844B38BA
:100E70001BF77C1D901DA4BBE424203284725E22EB
:0A0E80008100C9F124ECA1E53D2733
:100E8A00260027002800230024002500C000484F20
:0C0E9A004C41204D554E444F200D0A00E5
:00000001FF
