:100000000C9434000C9449000C9449000C94490061
:100010000C9449000C9449000C9449000C9449003C
:100020000C9449000C9449000C9449000C9449002C
:100030000C9449000C9449000C9449000C9449001C
:100040000C9449000C9449000C9449000C9449000C
:100050000C9449000C9449000C9449000C944900FC
:100060000C9449000C94490011241FBECFEFD8E036
:10007000DEBFCDBF11E0A0E0B1E0E2E6F1E002C0FA
:1000800005900D92A031B107D9F70E9496000C940B
:10009000AF000C940000CF93DF9300D000D0CDB719
:1000A000DEB719821A821B821C8289819A81AB81F8
:1000B000BC8180349C49A105B10560F489819A8195
:1000C000AB81BC810196A11DB11D89839A83AB834D
:1000D000BC83EBCF0F900F900F900F90DF91CF91DB
:1000E000089590910001E0910B01F0910C01808145
:1000F000892B8083E0910D01F0910E018081817D3B
:1001000080830895E0910D01F0910E019081917D21
:100110009083E82FF0E0ED5FFE4F9081E0910D01BC
:10012000F0910E018081892B808308950E947100D7
:10013000D1E0C0E00E944B008C2F90E00E94820032
:10014000CD0F80910101909102012C2F30E0019799
:100150002817390711F0C111EDCFD195EBCFF894E5
:02016000FFCFCF
:100162002E06000022060C080023002400250000B1
:00000001FF
