:100000000C9434000C9451000C9451000C94510049
:100010000C9451000C9451000C9451000C94FE006F
:100020000C9451000C9451000C9451000C9451000C
:100030000C9451000C9451000C9451000C945100FC
:100040000C9451000C9451000C9451000C945100EC
:100050000C9451000C9451000C9451000C945100DC
:100060000C9451000C94510011241FBECFEFD8E026
:10007000DEBFCDBF11E0A0E0B1E0E8E8F8E002C0EB
:1000800005900D92A431B107D9F721E0A4E1B1E0C8
:1000900001C01D92A731B207E1F70E9434010C9410
:1000A00042040C9400000F931F93CF93DF93CDB7BE
:1000B000DEB72A970FB6F894DEBF0FBECDBF0E9401
:1000C0003101182F0E942E01082F0E942B011F9230
:1000D0008F931F920F931F921F9382E091E09F9343
:1000E0008F938E010F5F1F4F1F930F930E94580134
:1000F000C8010E94A0000FB6F894DEBF0FBECDBFAE
:100100002A960FB6F894DEBF0FBECDBFDF91CF9118
:100110001F910F910895E0910001F0910101158266
:1001200087E6848388E1818386E082830895E09175
:100130000001F0910101908195FFFDCF8683089524
:10014000CF93DF93EC018991882319F00E949700E7
:10015000FACFDF91CF910895E0910001F091010174
:10016000808187FFFDCF86810895EF92FF920F93E4
:100170001F93CF93DF9300D000D000D0CDB7DEB770
:10018000009711F480E31FC09E012F5F3F4F79015C
:10019000F90100E010E02AE030E00F5F1F4FB901E5
:1001A0000E944401805D8193CB010097B1F70E0D51
:1001B0001F1DE016F10631F0F80182918F010E94B7
:1001C0009700F7CF8AE026960FB6F894DEBF0FBEF1
:1001D000CDBFDF91CF911F910F91FF90EF900C94C5
:1001E000970082E08093B00097E09093B1009CE983
:1001F0009093B30080937000789408951F920F92AB
:100200000FB60F9211248F93809116018F5F809308
:100210001601809116018436C0F01092160180916B
:1002200015018F5F80931501809115018C3368F063
:1002300010921501809114018F5F809314018091B9
:1002400014018C3310F0109214018F910F900FBE97
:100250000F901F90189580911601089580911501B7
:1002600008958091140108950E948B000E94F1006E
:100270000E9453002FEF83ED90E321508040904087
:10028000E1F700C00000F4CFAA1BBB1B51E107C07F
:10029000AA1FBB1FA617B70710F0A61BB70B881F16
:1002A000991F5A95A9F780959095BC01CD010895A5
:1002B000AEE0B0E0EEE5F1E00C9419040D891E8982
:1002C00086E08C831A8309838FEF9FE79E838D835B
:1002D000AE01475E5F4F6F89788DCE0101960E9417
:1002E0007A01EF81F885E00FF11F10822E96E4E08D
:1002F0000C943504ABE0B0E0E0E8F1E00C940B04C2
:100300006C017B018A01FC0117821682838181FFC7
:10031000CCC1CE0101963C01F6019381F70193FD1A
:10032000859193FF81917F01882309F4BAC18532B9
:1003300039F493FD859193FF81917F01853229F4F2
:10034000B60190E00E947103E7CF912C212C312C53
:10035000FFE1F315D8F08B3279F038F4803279F080
:100360008332A1F4232D20611DC08D3261F08033D2
:1003700069F4232D216016C0832D8260382EE32D71
:10038000E4603E2E2AC0F32DF8601DC037FC2DC05E
:1003900020ED280F2A3040F08E32B9F436FC81C1AE
:1003A000232D2064322E19C036FE06C08AE0989EA6
:1003B000200D1124922E11C0EAE02E9E200D112452
:1003C000222EF32DF0623F2E08C08C3621F4832DAF
:1003D0008068382E02C0883641F4F70193FD85917C
:1003E00093FF81917F018111B3CF982F9F7D955409
:1003F000933028F40C5F1F4F9FE399830DC0833621
:1004000031F0833771F0833509F059C021C0F8010C
:10041000808189830E5F1F4F88248394912C530120
:1004200013C02801F2E04F0E511CF801A080B180EA
:1004300036FE03C0692D70E002C06FEF7FEFC5018B
:100440000E9466034C018201F32DFF773F2E16C0F8
:10045000280122E0420E511CF801A080B18036FE36
:1004600003C0692D70E002C06FEF7FEFC5010E94ED
:100470005B034C01F32DF0683F2E820133FC1BC05F
:10048000822D90E088169906B0F4B60180E290E0E3
:100490000E9471032A94F4CFF50137FC859137FE51
:1004A00081915F01B60190E00E94710321102A94AE
:1004B00021E0821A91088114910471F7E8C0843612
:1004C00011F0893641F5F80137FE07C0608171816E
:1004D000828193810C5F1F4F08C060817181072E5C
:1004E000000C880B990B0E5F1F4FF32DFF763F2EEC
:1004F00097FF09C090958095709561957F4F8F4FBC
:100500009F4FF0683F2E2AE030E0A3010E94AD0328
:10051000882E861845C0853731F4232D2F7EB22EC4
:100520002AE030E025C0932D997FB92E8F36C1F097
:1005300018F4883579F0B5C0803719F0883721F084
:10054000B0C0E92FE061BE2EB4FE0DC0FB2DF460FB
:10055000BF2E09C034FE0AC0292F2660B22E06C065
:1005600028E030E005C020E130E002C020E132E0C8
:10057000F801B7FE07C060817181828193810C5FB1
:100580001F4F06C06081718180E090E00E5F1F4FB9
:10059000A3010E94AD03882E8618FB2DFF773F2E06
:1005A00036FE0DC0232D2E7FA22E891458F434FE62
:1005B0000BC032FC09C0832D8E7EA82E05C0B82C3E
:1005C000A32C03C0B82C01C0B92CA4FE0FC0FE019F
:1005D000E80DF11D8081803321F49A2D997EA92E9A
:1005E00009C0A2FE06C0B394B39404C08A2D8678D5
:1005F00009F0B394A3FC11C0A0FE06C0B21488F4A5
:10060000280C922C9B180EC0B21460F4B60180E244
:1006100090E00E947103B394F7CFB21418F42B1832
:1006200002C0982C212CA4FE10C0B60180E390E0FB
:100630000E947103A2FE17C0A1FC03C088E790E0EE
:1006400002C088E590E0B6010CC08A2D867859F08A
:10065000A1FE02C08BE201C080E2A7FC8DE2B601E0
:1006600090E00E947103891438F4B60180E390E0B1
:100670000E9471039A94F7CF8A94F301E80DF11D5B
:100680008081B60190E00E9471038110F5CF222095
:1006900009F442CEB60180E290E00E9471032A94F0
:1006A000F6CFF6018681978102C08FEF9FEF2B96E0
:1006B000E2E10C942704FC010590615070400110A8
:1006C000D8F7809590958E0F9F1F0895FC0161507B
:1006D000704001900110D8F7809590958E0F9F1F64
:1006E00008950F931F93CF93DF93FB01238121FD87
:1006F00003C08FEF9FEF2CC022FF16C046815781A9
:10070000248135814217530744F4A081B1819D01B2
:100710002F5F3F4F318320838C93268137812F5F5A
:100720003F4F3783268314C08B01EC01FB0100840B
:10073000F185E02D0995892BE1F6D80116968D916A
:100740009C911797019617969C938E931697CE01BE
:10075000DF91CF911F910F910895FA01AA272830B8
:1007600051F1203181F1E8946F936E7F6E5F7F4F7E
:100770008F4F9F4FAF4FB1E03ED0B4E03CD0670FFA
:10078000781F891F9A1FA11D680F791F8A1F911D4D
:10079000A11D6A0F711D811D911DA11D20D009F49D
:1007A00068943F912AE0269F11243019305D3193DF
:1007B000DEF6CF010895462F4770405D4193B3E0C8
:1007C0000FD0C9F7F6CF462F4F70405D4A3318F06F
:1007D000495D31FD4052419302D0A9F7EACFB4E020
:1007E000A6959795879577956795BA95C9F70097D8
:1007F0006105710508959B01AC010A2E0694579579
:10080000479537952795BA95C9F7620F731F841FCF
:10081000951FA01D08952F923F924F925F926F9265
:100820007F928F929F92AF92BF92CF92DF92EF9280
:10083000FF920F931F93CF93DF93CDB7DEB7CA1B01
:10084000DB0B0FB6F894DEBF0FBECDBF09942A882C
:10085000398848885F846E847D848C849B84AA84D4
:10086000B984C884DF80EE80FD800C811B81AA8161
:10087000B981CE0FD11D0FB6F894DEBF0FBECDBF2C
:08088000ED010895F894FFCF8B
:10088800C000253032643A253032643A253032646B
:040898000D0A000045
:00000001FF
