:100000000C9434000C9449000C9449000C94490061
:100010000C9449000C9449000C9449000C9449003C
:100020000C9449000C9449000C9449000C9449002C
:100030000C9449000C9449000C9449000C9449001C
:100040000C9449000C9449000C9449000C9449000C
:100050000C9449000C9449000C9449000C944900FC
:100060000C9449000C94490011241FBECFEFD8E036
:10007000DEBFCDBF11E0A0E0B1E0E8EFFAE002C0E2
:1000800005900D92A43BB107D9F70E940A030C9486
:100090007A050C940000CF93DF931F92CDB7DEB7A3
:1000A000FC01698389819081982B90830F90DF9167
:1000B000CF910895CF93DF931F92CDB7DEB7FC01A8
:1000C0006983998180819095982390830F90DF9127
:1000D000CF910895259A08952D9A08952D98089501
:1000E000CF93DF93CDB7DEB72A970FB6F894DEBF74
:1000F0000FBECDBF9A87898729853A85A7E6B1E0EB
:100100000E949A0369837A838B839C831D821E825B
:100110001F8218864D815E816F81788589819A81E1
:10012000AB81BC81481759076A077B0748F02A96BC
:100130000FB6F894DEBF0FBECDBFDF91CF9108950B
:100140008D819E81AF81B8850196A11DB11D8D83E2
:100150009E83AF83B887DECF64E084E290E00C94A6
:100160004B002F923F924F925F926F927F928F92AD
:100170009F92AF92BF92CF92DF92EF92FF920F9336
:100180001F93CF93DF93CDB7DEB76C970FB6F8947C
:10019000DEBF0FBECDBF9A8789877C876B87898535
:1001A0009A85892B09F05DC06B857C85072E000C34
:1001B000880B990B0E9458044B015C0120E030E051
:1001C0004AE755E40E940D056B017C0120E030E018
:1001D00040E85FE30E94B00387FD40C020E03FEFAE
:1001E0004FE757E4C701B6010E940805181674F5D9
:1001F00020E030E040E251E4C501B4010E940D0569
:100200000E94270420E931E061157105C9F46C965C
:100210000FB6F894DEBF0FBECDBFDF91CF911F9117
:100220000F91FF90EF90DF90CF90BF90AF909F9095
:100230008F907F906F905F904F903F902F90089598
:10024000C9010197F1F761507109DECFC701B6010D
:100250000E942704CB010197F1F7D9CF61E070E04C
:10026000F9CF29853A85032E000C440B550B60E22B
:1002700071EA87E090E00E947803298B3A8B4B8BE0
:100280005C8BAB85BC8528EE33E00E94A9036D83AF
:100290007E838F83988719821A821B821C82298908
:1002A0003A894B895C89220F331F441F551F298FC0
:1002B0003A8F4B8F5C8F90E9292E332433944981F8
:1002C0005A816B817C818D819E81AF81B885481771
:1002D00059076A077B0708F09ACF64E085E290E04F
:1002E0000E944B0069897A898B899C890E945604F7
:1002F0004B015C012BEA3AEA4AEA50E40E940D0500
:100300006B017C0120E030E040E850E4C501B4011D
:100310000E940D052B013C0120E030E040E85FE346
:10032000C701B6010E94B00387FDC0C020E03FEFC7
:100330004FE757E4C301B2010E94080518160CF0FC
:100340004FC020E030E04AE754E4C501B4010E9408
:10035000B5036D8B7E8B8F8B988F20E030E04AE762
:1003600055E40E940D056D877E878F87988B20E06E
:1003700030E040E85FE30E94B00387FD2EC020E03C
:100380003FEF4FE757E46D857E858F8598890E9402
:1003900008051816C4F420E030E040E251E46D890D
:1003A0007E898F89988D0E940D050E942704611512
:1003B000710519F41A95F1F725C0C1010197F1F7FC
:1003C00061507109F4CF6D857E858F8598890E9473
:1003D0002704CB010197F1F7EDCF61E070E0F9CF91
:1003E00020E030E04FE753E4C701B6010E94080562
:1003F00018160CF055C0C301B2010E942704CB01AE
:100400000197F1F764E085E290E00E945A0020E055
:1004100030E040E85FE3C701B6010E94B00387FD0A
:1004200080C020E03FEF4FE757E4C301B2010E94D4
:10043000080518160CF04DC020E030E04AE754E4FF
:10044000C501B4010E94B5034B015C0120E030E01E
:100450004AE755E40E940D056B017C0120E030E085
:1004600040E85FE30E94B00387FD30C020E03FEF2B
:100470004FE757E4C701B6010E9408051816F4F4C7
:1004800020E030E040E251E4C501B4010E940D05D6
:100490000E9427046115710559F40A95F1F72AC0E5
:1004A000C701B6010E942704162F84CF11E082CF26
:1004B000C1010197F1F761507109ECCFC701B60195
:1004C0000E942704CB010197F1F7E7CF61E070E0CC
:1004D000F9CF20E030E04FE753E4C701B6010E94B6
:1004E00008051816C4F4C301B2010E942704CB0109
:1004F0000197F1F789819A81AB81BC81298D3A8D71
:100500004B8D5C8D820F931FA41FB51F89839A8327
:10051000AB83BC83D4CEC701B6010E942704062F4B
:10052000BCCF01E0BACF61E084E290E00E944B00D2
:1005300062E084E290E00C945A0083B18695817069
:1005400090E008951F93CF93DF93CDB7DEB7289740
:100550000FB6F894DEBF0FBECDBF8FEF9FEF988729
:100560008F8319821A821B821C821E821D8261E087
:1005700085E290E00E944B0080E48A95F1F761E00B
:1005800085E290E00E945A000E949D02892BE1F3CF
:1005900015E00E949D02892B49F089819A81AB81E7
:1005A000BC81803A9C48A105B10528F189819A81D6
:1005B000AB81BC81803A9C48A105B10560F469819A
:1005C0007A818B819C812AE330E040E050E00E94F8
:1005D000780338872F8380E49CE90197F1F78F81B6
:1005E000988528960FB6F894DEBF0FBECDBFDF9179
:1005F000CF911F910895812F8A95F1F789819A8172
:10060000AB81BC810196A11DB11D89839A83AB8307
:10061000BC83BFCFAF92BF92CF92DF92EF92FF9297
:100620000F931F93CF93DF93CDB7DEB7C85BD1098C
:100630000FB6F894DEBF0FBECDBF81E090E0A0E022
:10064000B0E0CB54DF4F88839983AA83BB83C55B1B
:10065000D0400E94AC000E9493027E018BE5E80E20
:10066000F11C8AE5E0E0F1E0D70101900D928A9556
:10067000E1F78AE5EAE5F1E0DE01119601900D92DD
:100680008A95E1F78E010F5F1F4F670130E9A32EB6
:10069000BB24B394F601819191916F01F8016191AE
:1006A00071918F0177FF02C06F5F7F4F75956795DE
:1006B0000E94B10088EE93E0F5013197F1F70197C0
:1006C000D9F70E151F0531F790E080E0C854DF4FD1
:1006D0000FB6F894DEBF0FBECDBFDF91CF911F9153
:1006E0000F91FF90EF90DF90CF90BF90AF90089563
:1006F000A1E21A2EAA1BBB1BFD010DC0AA1FBB1F26
:10070000EE1FFF1FA217B307E407F50720F0A21B97
:10071000B30BE40BF50B661F771F881F991F1A9404
:1007200069F760957095809590959B01AC01BD012E
:10073000CF010895A29FB001B39FC001A39F700D88
:10074000811D1124911DB29F700D811D1124911DD9
:1007500008950E949A03B7FF0895821B930B089592
:100760000E94930408F481E008950E94C9030C9448
:10077000CE040E94C70458F00E94C00440F029F43F
:100780005F3F29F00C94B70451110C9402050C94AE
:10079000BD040E94DF0468F39923B1F3552391F35C
:1007A000951B550BBB27AA2762177307840738F0E0
:1007B0009F5F5F4F220F331F441FAA1FA9F335D03D
:1007C0000E2E3AF0E0E832D091505040E695001CF1
:1007D000CAF72BD0FE2F29D0660F771F881FBB1FAB
:1007E000261737074807AB07B0E809F0BB0B802D89
:1007F000BF01FF2793585F4F3AF09E3F510578F0B5
:100800000C94B7040C9402055F3FE4F3983ED4F3D4
:10081000869577956795B795F7959F5FC9F7880F88
:10082000911D9695879597F90895E1E0660F771FDA
:10083000881FBB1F621773078407BA0720F0621B6B
:10084000730B840BBA0BEE1F88F7E09508950E9496
:10085000E70488F09F5798F0B92F9927B751B0F067
:10086000E1F0660F771F881F991F1AF0BA95C9F734
:1008700014C0B13091F00E940105B1E008950C94CC
:100880000105672F782F8827B85F39F0B93FCCF37F
:10089000869577956795B395D9F73EF490958095B1
:1008A000709561957F4F8F4F9F4F0895E89409C0D1
:1008B00097FB3EF490958095709561957F4F8F4F93
:1008C0009F4F9923A9F0F92F96E9BB279395F695A9
:1008D000879577956795B795F111F8CFFAF4BB0F27
:1008E00011F460FF1BC06F5F7F4F8F4F9F4F16C08B
:1008F000882311F096E911C0772321F09EE8872F15
:10090000762F05C0662371F096E8862F70E060E0D0
:100910002AF09A95660F771F881FDAF7880F969549
:10092000879597F90895990F0008550FAA0BE0E8ED
:10093000FEEF16161706E807F907C0F012161306A1
:10094000E407F50798F0621B730B840B950B39F4E1
:100950000A2661F0232B242B252B21F408950A2647
:1009600009F4A140A6958FEF811D811D089597F987
:100970009F6780E870E060E008959FEF80EC089545
:1009800000240A941616170618060906089500246E
:100990000A9412161306140605060895092E0394E8
:1009A000000C11F4882352F0BB0F40F4BF2B11F45C
:1009B00060FF04C06F5F7F4F8F4F9F4F089557FDBB
:1009C0009058440F551F59F05F3F71F04795880FBD
:1009D00097FB991F61F09F3F79F087950895121654
:1009E00013061406551FF2CF4695F1DF08C0161600
:1009F00017061806991FF1CF8695710561050894B1
:100A00000895E894BB2766277727CB0197F90895C7
:100A10000E94930408F48FEF08950E9420050C941F
:100A2000CE040E94C00438F00E94C70420F0952331
:100A300011F00C94B7040C94BD0411240C9402051D
:100A40000E94DF0470F3959FC1F3950F50E0551F8E
:100A5000629FF001729FBB27F00DB11D639FAA2713
:100A6000F00DB11DAA1F649F6627B00DA11D661F62
:100A7000829F2227B00DA11D621F739FB00DA11D83
:100A8000621F839FA00D611D221F749F3327A00D3D
:100A9000611D231F849F600D211D822F762F6A2FD9
:100AA00011249F5750409AF0F1F088234AF0EE0F3E
:100AB000FF1FBB1F661F771F881F91505040A9F76B
:100AC0009E3F510580F00C94B7040C9402055F3FE3
:100AD000E4F3983ED4F3869577956795B795F795A7
:100AE000E7959F5FC1F7FE2B880F911D969587951F
:080AF00097F90895F894FFCF77
:100AF8004D0A4D0A00004D0A00002D084D0A00005D
:100B0800400C000000002006000000002D08000036
:100B18000000200600000000270500000000E00695
:100B28000000B80700004907E006000020064D0A4B
:100B3800400CC00D0000EA0A400C00004D0A0000FD
:100B48002D082D09B80700000000C800C800C8001B
:100B5800C800C800C800C800C800900190019001F2
:100B680090019001900190019001900190019001F5
:100B78009001900190019001C800C800C80064006D
:100B8800C800C800C800C800C800C800C800C8001D
:100B9800C800C800C800C800C800C800C800C8000D
:040BA8009001900127
:00000001FF
