:100000000C9434000C9449000C9449000C94490061
:100010000C9449000C9449000C9449000C9449003C
:100020000C9449000C9449000C9449000C9449002C
:100030000C9449000C9449000C9449000C9449001C
:100040000C9449000C9449000C9449000C9449000C
:100050000C9449000C9449000C9449000C944900FC
:100060000C9449000C94490011241FBECFEFD8E036
:10007000DEBFCDBF11E0A0E0B1E0EAEDF1E002C0EB
:1000800005900D92A232B107D9F70E949E000C9400
:10009000EB000C9400000F931F93CF93DF9300D0DD
:1000A00000D0CDB7DEB78B019C0119821A821B826A
:1000B0001C8289819A81AB81BC8180179107A2073C
:1000C000B30748F00F900F900F900F90DF91CF91F2
:1000D0001F910F91089589819A81AB81BC8101960E
:1000E000A11DB11D89839A83AB83BC83E2CFE091CC
:1000F0001801F09119011082E0911A01F0911B0191
:10010000808180628083E0912001F0912101108242
:10011000E0911E01F0911F0180818F60808308951E
:10012000E0911601F09117018081807290E00895AE
:10013000E0912001F0912101808308950E947700D1
:10014000C12CD12C7601C0E082E3882E912CA12C09
:10015000B12C0E949000892B09F4FFCF68EE73E068
:1001600080E090E00E944B008FEFC81AD80AE80A9E
:10017000F80AC701B601A50194010E94C900672BC6
:10018000682B692B31F7CF5F8C2F8F700E949800FE
:10019000E0CFA1E21A2EAA1BBB1BFD010DC0AA1FB6
:1001A000BB1FEE1FFF1FA217B307E407F50720F0E0
:1001B000A21BB30BE40BF50B661F771F881F991F5B
:1001C0001A9469F760957095809590959B01AC01A4
:0A01D000BD01CF010895F894FFCFA0
:1001DA00080C0E0F07030103070F0E0C050A080C83
:1001EA0006030103060C260027002800230024002A
:0201FA002500DE
:00000001FF
