:100000000C94B1000C94CE000C94CE000C94CE0055
:100010000C94CE000C94CE000C94CE000C94CE0028
:100020000C94CE000C94CE000C94CE000C94CE0018
:100030000C94CE000C94CE000C94CE000C94CE0008
:100040000C94CE000C94CE000C94CE000C94CE00F8
:100050000C94CE000C94CE000C94CE000C94CE00E8
:100060000C94CE000C94CE0000407A10F35A00A0FD
:10007000724E18090010A5D4E80000E87648170071
:1000800000E40B54020000CA9A3B000000E1F505B1
:10009000000080969800000040420F000000A086FB
:1000A00001000000102700000000E803000000002D
:1000B0006400000000000A000000000001000000D1
:1000C00000002C76D888DC674F0823DFC1DFAE59EB
:1000D000E1B1B796E5E3E453C63AE651997696E87E
:1000E000E6C28426EB898C9B62ED407C6FFCEFBC02
:1000F0009C9F40F2BAA56FA5F490055A2AF75C932D
:100100006B6CF9676DC11BFCE0E40D47FEF520E662
:10011000B500D0ED902E0300943577050080841E45
:10012000080000204E0A000000C80C333333330FA0
:10013000986E12831141EF8D2114893BE65516CF3D
:10014000FEE6DB18D1844B381BF77C1D901DA4BB49
:10015000E424203284725E228100C9F124ECA1E5FE
:100160003D2711241FBECFEFD8E0DEBFCDBF11E089
:10017000A0E0B1E0E2E2F5E102C005900D92A03B03
:10018000B107D9F722E0A0EBB1E001C01D92A43184
:10019000B207E1F70E94AD040C948F0A0C940000A2
:1001A000E0910201F091030180818460808344E04A
:1001B0002CEE3DE1E0910401F0910501808184275E
:1001C0008083C9010197F1F7F5CF4F925F926F924B
:1001D0007F928F929F92AF92BF92CF92DF92EF92D7
:1001E000FF920F931F93CF93DF93CDB7DEB72A977C
:1001F0000FB6F894DEBF0FBECDBF3C018B01E0917E
:100200000201F0910301808184608083B301072C97
:10021000000C880B990B0E94E4069B01AC0160E086
:1002200074E284E799E40E943A0620E030E040E07E
:100230005FE30E9499076B017C0188EE93E0089FC1
:10024000B001099F700D189F700D1124072E000C2E
:10025000880B990B0E94E4064B015C01A7019601F3
:10026000C701B6010E94C9059B01AC01C501B401DB
:100270000E943A060E94AC066D837E838F83988726
:10028000672849F08D809E80880C991CA12CB12C88
:1002900000E911E0D0C02BEA3AEA4AEA50E4C5018D
:1002A000B4010E9499072B013C0120E030E040E8B6
:1002B0005FE30E94350687FD73C020E030E040E830
:1002C00050E4C501B4010E94990769837A838B8346
:1002D0009C8320E03FEF4FE757E40E9494071816F5
:1002E0000CF044C020E030E04AE754E4C501B4011A
:1002F0000E943A062B013C0120E030E04AE755E439
:100300000E9499074B015C0120E030E040E85FE388
:100310000E94350687FD24C020E03FEF4FE757E4F9
:10032000C501B4010E9494071816ACF420E030E037
:1003300040E251E4C301B2010E9499070E94B30652
:1003400020E931E06115710569F1C9010197F1F703
:1003500061507109F7CFC501B4010E94B30602C014
:1003600061E070E0CB010197F1F71CC020E030E0C4
:100370004FE753E4C301B2010E949407181654F4E6
:1003800069817A818B819C810E94B306CB010197A0
:10039000F1F778CFC301B2010E94B306698702C0AA
:1003A00081E0898799859A95F1F76CCFE0910401F6
:1003B000F0910501808194E0892780832BEA3AEA55
:1003C0004AEA50E4C701B6010E9499072B013C019B
:1003D00020E030E040E85FE30E94350687FD7CC006
:1003E00020E030E040E850E4C701B6010E949907E0
:1003F00069837A838B839C8320E03FEF4FE757E448
:100400000E9494071816E4F020E030E04FE753E430
:10041000C301B2010E94940718160CF057C06981FD
:100420007A818B819C810E94B306CB010197F1F701
:100430009FEFA91AB90AA814B9040CF4B7CF52C097
:1004400020E030E04AE754E4C701B6010E943A06D2
:1004500069837A838B839C8320E030E04AE755E40C
:100460000E9499072B013C0120E030E040E85FE367
:100470000E94350687FD24C020E03FEF4FE757E498
:10048000C301B2010E9494071816ACF420E030E0DA
:1004900040E251E469817A818B819C810E949907B5
:1004A0000E94B30661157105C9F0C8010197F1F703
:1004B00061507109F7CFC301B2010E94B30602C0B7
:1004C00061E070E0CB010197F1F708C0C301B20110
:1004D0000E94B3066A8702C081E08A878A858A956E
:1004E000F1F7A6CF2A960FB6F894DEBF0FBECDBFA8
:1004F000DF91CF911F910F91FF90EF90DF90CF9000
:10050000BF90AF909F908F907F906F905F904F9033
:100510000895E0910201F091030180818160808360
:10052000E0910201F091030180818D7F8083E09151
:100530000401F091050180818E7F808308958AE017
:100540008A95F1F7E0910401F091050180818160C5
:10055000808385E38A95F1F7E0910401F09105012C
:1005600080818E7F8083E0910001F091010181E321
:1005700095E735E0208121FD08C0232F2A95F1F76A
:100580000197C1F78FEF9FEF089580E090E035E08D
:10059000208121FF05C0232F2A95F1F70196F8CF7E
:1005A0006AE370E00E944505CB010895E0910601E1
:1005B000F0910701808180780895E0910601F09123
:1005C0000701158287E6848386E0828388E1818340
:1005D0000895E0910601F0910701908195FFFDCF0C
:1005E00086830895E0910601F0910701808187FFDD
:1005F000FDCF86810895CF93DF93EC018991882305
:1006000019F00E94E902FACFDF91CF910895AC0171
:1006100081E090E020E030E0261737075CF4FC0131
:10062000E49FC001E59F900DF49F900D11242F5F72
:100630003F4FF2CF0895CF92DF92EF92FF92CF9388
:10064000DF936C01EB0161E070E080E090E0E0E0BE
:10065000F0E00D2C000CEE08FF08EC17FD0744F449
:100660009B01AC01C701B6010E9435053196F5CF5B
:10067000DF91CF91FF90EF90DF90CF900895CF92D0
:10068000DF92EF92FF921F93CF93DF93CDB7DEB748
:1006900027970FB6F894DEBF0FBECDBF9C01AB010C
:1006A00041505109EE24E394F12C80E090E0EAE01F
:1006B0008417950744F4D701EA9F7001EB9FF00C73
:1006C00011240196F5CF37FD03C0462F10E008C076
:1006D0008DE2898331952195310941E0460F11E082
:1006E0008AE0C82ED12C812F012E000C990BE1E05D
:1006F000F0E0EC0FFD1FE80FF91F141774F4C901A7
:10070000B7010E944505605D60839C01C701B60189
:100710000E9445057B011F5FE6CF1082CE01019646
:100720000E94FB0227960FB6F894DEBF0FBECDBF26
:10073000DF91CF911F91FF90EF90DF90CF900895C0
:100740002F923F924F925F926F927F928F929F92E1
:10075000AF92BF92CF92DF92EF92FF920F931F93CF
:10076000CF93DF93CDB7DEB72C970FB6F894DEBFEB
:100770000FBECDBF6B877C87782E692E8A015A0108
:1007800081E0A81AB108C12CD12C7601C394E0E015
:10079000F0E0EA15FB0554F4AAE0B0E0A7019601E9
:1007A0000E9478056B017C013196F3CFFE013196F2
:1007B0005F014F018AE0282E312C412C512CC401BD
:1007C0008A199B0980179107CCF46B857C85872D4E
:1007D000962DA70196010E945905205DF4012193F1
:1007E0004F016B877C87782E692EC701B601A20165
:1007F00091010E94590569017A01E1CF17FF02C0FA
:1008000000E010E0F501E00FF11F1082C5010E9429
:10081000FB022C960FB6F894DEBF0FBECDBFDF9162
:10082000CF911F910F91FF90EF90DF90CF90BF90ED
:10083000AF909F908F907F906F905F904F903F9080
:100840002F900895BF92CF92DF92EF92FF920F9375
:100850001F93CF93DF93CDB7DEB72A970FB6F894E7
:10086000DEBF0FBECDBF20E030E048EC52E40E9476
:1008700099070E94AC06362F272FFE0131967E0184
:1008800084E0E80EF11C04E610E0BE2E4F2F8AE053
:10089000C82ED12C832F922FB8010E944505605D90
:1008A0006193382F292FC801B6010E9445058B019D
:1008B000EE15FF0579F71C828B2D942F0E94FB0209
:1008C0002A960FB6F894DEBF0FBECDBFDF91CF9151
:1008D0001F910F91FF90EF90DF90CF90BF90089500
:1008E0000F931F93CF93DF93CDB7DEB7C055D109D8
:1008F0000FB6F894DEBF0FBECDBF8E010F5F1F4F46
:100900000E940608C8010E94FB02C05BDF4F0FB6C1
:10091000F894DEBF0FBECDBFDF91CF911F910F9135
:100920000895CF93DF930E94F202C0EBD1E09E01C5
:10093000205B31408D3041F08A3031F0882321F046
:1009400089930E94F202F3CFF901E055FE4F108225
:1009500080EB91E0DF91CF910895CF93DF93CDB7F6
:10096000DEB7C85AD1090FB6F894DEBF0FBECDBFAF
:1009700088E3E8E0F1E0DE01AF58BF4F01900D924F
:100980008A95E1F788E3E0E4F1E0DE01D996019091
:100990000D928A95E1F788E3E8E7F1E0DE01119630
:1009A00001900D928A95E1F78E01075C1F4FCE01F1
:1009B0008F589F4F5C01FE0131964F011801F8E3FB
:1009C0002F0E311C0215130579F3F8016191719115
:1009D0008F01F501819191915F010E94E500F40181
:1009E000619171914F01072E000C880B990B0E94A9
:1009F000E4062B013C0120E030E04AE755E40E9488
:100A000099076B017C0120E030E040E85FE30E9441
:100A1000350687FD24C020E03FEF4FE757E4C701CC
:100A2000B6010E9494071816ACF420E030E040E2D2
:100A300051E4C301B2010E9499070E94B3066115F7
:100A4000710509F4BFCF80E991E00197F1F761509A
:100A50007109F5CFC701B6010E94B30602C061E07B
:100A600070E0CB010197F1F7ADCFDB018F939F933E
:100A70000E947805BF91AF91A29F800D911DA39F09
:100A8000900DB29F900D1124089597FB072E16F438
:100A9000009407D077FD09D00E94830507FC05D09C
:100AA0003EF4909581959F4F0895709561957F4F85
:100AB0000895052E97FB1EF400940E94700557FDC3
:100AC00007D00E94970507FC03D04EF40C947005E4
:100AD00050954095309521953F4F4F4F5F4F08956A
:100AE00090958095709561957F4F8F4F9F4F08959A
:100AF0000E94B905A59F900DB49F900DA49F800DF5
:100B0000911D11240895AA1BBB1B51E107C0AA1F08
:100B1000BB1FA617B70710F0A61BB70B881F991F9E
:100B20005A95A9F780959095BC01CD010895A1E251
:100B30001A2EAA1BBB1BFD010DC0AA1FBB1FEE1F57
:100B4000FF1FA217B307E407F50720F0A21BB30BA2
:100B5000E40BF50B661F771F881F991F1A9469F71E
:100B600060957095809590959B01AC01BD01CF017A
:100B70000895A29FB001B39FC001A39F700D811D76
:100B80001124911DB29F700D811D1124911D089596
:100B90005058BB27AA270E94E0050C945A070E94D0
:100BA0004C0738F00E94530720F039F49F3F19F4A6
:100BB00026F40C9449070EF4E095E7FB0C944307E8
:100BC000E92F0E946B0758F3BA176207730784076F
:100BD000950720F079F4A6F50C948D070EF4E095B6
:100BE0000B2EBA2FA02D0B01B90190010C01CA01E7
:100BF000A0011124FF27591B99F0593F50F4503E92
:100C000068F11A16F040A22F232F342F4427585F83
:100C1000F3CF469537952795A795F0405395C9F79B
:100C20007EF41F16BA0B620B730B840BBAF0915053
:100C3000A1F0FF0FBB1F661F771F881FC2F70EC0F2
:100C4000BA0F621F731F841F48F4879577956795C5
:100C5000B795F7959E3F08F0B0CF9395880F08F0B1
:100C60009927EE0F9795879508950E941F0708F41E
:100C700081E008950E944E060C945A070E94530783
:100C800058F00E944C0740F029F45F3F29F00C9483
:100C9000430751110C948E070C9449070E946B076F
:100CA00068F39923B1F3552391F3951B550BBB279B
:100CB000AA2762177307840738F09F5F5F4F220FE0
:100CC000331F441FAA1FA9F335D00E2E3AF0E0E8D7
:100CD00032D091505040E695001CCAF72BD0FE2F21
:100CE00029D0660F771F881FBB1F261737074807B5
:100CF000AB07B0E809F0BB0B802DBF01FF2793586D
:100D00005F4F3AF09E3F510578F00C9443070C94E6
:100D10008E075F3FE4F3983ED4F386957795679509
:100D2000B795F7959F5FC9F7880F911D96958795A1
:100D300097F90895E1E0660F771F881FBB1F6217C0
:100D400073078407BA0720F0621B730B840BBA0B7E
:100D5000EE1F88F7E09508950E94B3066894B111DC
:100D60000C948E0708950E94730788F09F5798F09F
:100D7000B92F9927B751B0F0E1F0660F771F881FA0
:100D8000991F1AF0BA95C9F714C0B13091F00E94BA
:100D90008D07B1E008950C948D07672F782F882771
:100DA000B85F39F0B93FCCF3869577956795B395E1
:100DB000D9F73EF490958095709561957F4F8F4F50
:100DC0009F4F0895E89409C097FB3EF49095809555
:100DD000709561957F4F8F4F9F4F9923A9F0F92F01
:100DE00096E9BB279395F695879577956795B7957F
:100DF000F111F8CFFAF4BB0F11F460FF1BC06F5F65
:100E00007F4F8F4F9F4F16C0882311F096E911C076
:100E1000772321F09EE8872F762F05C0662371F097
:100E200096E8862F70E060E02AF09A95660F771FAB
:100E3000881FDAF7880F9695879597F90895990F87
:100E40000008550FAA0BE0E8FEEF16161706E80794
:100E5000F907C0F012161306E407F50798F0621BB5
:100E6000730B840B950B39F40A2661F0232B242B8A
:100E7000252B21F408950A2609F4A140A6958FEFA9
:100E8000811D811D089597F99F6780E870E060E0FB
:100E900008959FEF80EC089500240A941616170613
:100EA00018060906089500240A941216130614065B
:100EB00005060895092E0394000C11F4882352F0BE
:100EC000BB0F40F4BF2B11F460FF04C06F5F7F4F76
:100ED0008F4F9F4F089557FD9058440F551F59F05D
:100EE0005F3F71F04795880F97FB991F61F09F3F17
:100EF00079F087950895121613061406551FF2CF40
:100F00004695F1DF08C0161617061806991FF1CF8F
:100F100086957105610508940895E894BB276627B6
:100F20007727CB0197F908950E941F0708F48FEFE8
:100F300008950E94AC070C945A070E944C0738F0A1
:100F40000E94530720F0952311F00C9443070C9452
:100F5000490711240C948E070E946B0770F3959F2C
:100F6000C1F3950F50E0551F629FF001729FBB27A0
:100F7000F00DB11D639FAA27F00DB11DAA1F649F3C
:100F80006627B00DA11D661F829F2227B00DA11DEF
:100F9000621F739FB00DA11D621F839FA00D611D75
:100FA000221F749F3327A00D611D231F849F600D96
:100FB000211D822F762F6A2F11249F5750409AF0BF
:100FC000F1F088234AF0EE0FFF1FBB1F661F771F4B
:100FD000881F91505040A9F79E3F510580F00C9416
:100FE00043070C948E075F3FE4F3983ED4F3869555
:100FF00077956795B795F795E7959F5FC1F7FE2BB6
:10100000880F911D9695879597F90895EF920F9304
:101010001F93CF93DF93E80147FD02C034E001C086
:1010200034E1042E000C550B57FF03C05195419538
:101030005109E32E022F242FAE010E942608CE0173
:10104000DF91CF911F910F91EF900895A9E0B0E04B
:10105000ECE2F8E00C945E0A6A01122FB02E2BE34A
:10106000201720F0FF24F394F00E02C02CE3F22EA0
:101070000F2D27E0AE014F5F5F4F0E948009BC013A
:101080004981842F8970813031F0E1FC06C0E0FE97
:1010900006C090E205C09DE203C09BE201C090E063
:1010A0005E2D507143FF3CC0911102C083E001C02E
:1010B00084E0811718F4212F281B01C020E0511172
:1010C0000BC0F601822F30E2882319F03193815052
:1010D000FBCFC20ED11C20E0992329F0D6019C93AE
:1010E000F60131966F01C6010396E2FE0AC03EE4A6
:1010F000D6013C9341E411964C93119712963C9380
:1011000006C03EE6F601308341E641833283FC01AE
:10111000322F40E2332309F442C041933150FACFD9
:1011200042FF44C0911102C083E001C084E08117F6
:1011300018F4212F281B01C020E051110BC0F6012B
:10114000822F30E2882319F031938150FBCFC20EF9
:10115000D11C20E0992329F0D6019C93F601319609
:101160006F01C6010396E2FE0BC039E4D6013C9341
:101170003EE411963C93119736E412963C9307C0D7
:1011800039E6F60130833EE6318336E63283FC01F0
:10119000322F40E2332319F041933150FBCFFC0151
:1011A000E20FF11D10828EEF9FEFA6C021E030E02C
:1011B000911102C020E030E0161617061CF4FB0166
:1011C000319602C0E1E0F0E02E0F3F1FBB2021F07E
:1011D000EB2DF0E0319602C0E0E0F0E02E0F3F1F73
:1011E000E12FF0E02E173F071CF4121B212F01C046
:1011F00020E08E2D887159F4F601822F30E2882389
:1012000019F031938150FBCFC20ED11C20E09923FD
:1012100029F0D6019C93F60131966F0151110BC054
:10122000F601822F90E3882319F091938150FBCF30
:10123000C20ED11C20E00F2D060F9A81342F307181
:1012400044FF03C0913309F40150101624F409300F
:1012500018F008E001C001E0AB0177FF02C040E0F8
:1012600050E0FB01E41BF50BA1E0B0E0AC0FBD1FAB
:10127000EA0FFB1F8EE2A82E4B01801A91080B2D5E
:1012800010E01195019511094F3FBFEF5B0721F465
:10129000D601AC9211966D01641775072CF0841677
:1012A000950614F4818101C080E3415051093196C3
:1012B000D60111967D014017510724F0D6018C9379
:1012C0006701E2CF6417750739F4963320F495333C
:1012D00019F4311101C081E3F6018083F701822FF7
:1012E00090E2882319F091938150FBCFF701E20F30
:1012F000F11D108280E090E02996ECE00C947A0ACF
:10130000283008F027E03327DA01990F311D87FDD7
:10131000916000966105710539F432602E5F3D934E
:1013200030E32A95E1F708959F3F30F0803871054A
:10133000610509F03C5F3C5F3D93913008F08068A7
:10134000911DDF93CF931F930F93FF92EF92192F6D
:10135000987F9695E92F96959695E90FFF27EE537E
:10136000FF4F99273327EE24FF24A701E7010590BB
:101370000894079428F4360FE71EF81E491F511DE4
:10138000660F771F881F991F0694A1F70590079491
:1013900028F4E70EF81E491F561FC11D770F881F3E
:1013A000991F661F0694A1F70590079428F4F80E7C
:1013B000491F561FC71FD11D880F991F661F771F12
:1013C0000694A1F70590079420F4490F561FC71FF4
:1013D000D81F990F661F771F881F0694A9F784915D
:1013E0001095177041F0D695C79557954795F79486
:1013F000E7941A95C1F7E8E6F0E068941590159126
:1014000035916591959105907FE27395E118F10A08
:10141000430B560BC90BD009C0F7E10CF11E431F5B
:10142000561FC91FD01D7EF4703311F48A95E6CF84
:10143000E894015030F0080F0AF40027021708F46E
:10144000202F2395022F7A3328F079E37D932A9574
:10145000E9F710C07D932A9589F6069497956795CC
:10146000379517951794E118F10A430B560BC90BE2
:10147000D00998F023957E9173957A3308F070E344
:101480007C932013B8F77E9170617D9330F0839543
:1014900071E37D9370E32A95E1F71124EF90FF90BB
:1014A0000F911F91CF91DF91992787FD9095089516
:1014B0002F923F924F925F926F927F928F929F9264
:1014C000AF92BF92CF92DF92EF92FF920F931F9352
:1014D000CF93DF93CDB7DEB7CA1BDB0B0FB6F89403
:1014E000DEBF0FBECDBF09942A88398848885F8443
:1014F0006E847D848C849B84AA84B984C884DF80B4
:10150000EE80FD800C811B81AA81B981CE0FD11D97
:101510000FB6F894DEBF0FBECDBFED010895F8946D
:02152000FFCFFB
:10152200230024002500C0009302930200009302CE
:1015320000000B029302100388010B0288014A018A
:10154200B801EE01D201B80188010B029302100327
:101552007003BA02100393020B02B801EE010B02F0
:101562009001900190019001900190019001580228
:10157200200390019001900190019001900190014F
:101582009001580290019001900190019001900108
:10159200900190019001200396009600960096001B
:1015A20096009600960090015802960096009600CA
:1015B200960096009600960096009001960096007E
:1015C20096009600960096009600960096005802A5
:00000001FF
