:100000000C9434000C9449000C9449000C94490061
:100010000C9449000C9449000C9449000C9449003C
:100020000C9449000C9449000C9449000C9449002C
:100030000C9449000C9449000C9449000C9449001C
:100040000C9449000C9449000C9449000C9449000C
:100050000C9449000C9449000C9449000C944900FC
:100060000C9449000C94490011241FBECFEFD8E036
:10007000DEBFCDBF11E0A0E0B1E0E0E0F2E002C001
:1000800005900D92AE30B107D9F70E94D9000C94BB
:10009000FE000C940000E0910001F0910101158236
:1000A00087E6848388E1818386E082830895E091F6
:1000B0000001F0910101908195FFFDCF86830895A5
:1000C000E0910001F0910101808187FFFDCF8681E1
:1000D0000895E0910A01F0910B012081982F9095ED
:1000E00092239083E0910C01F0910D019081892B76
:1000F00080830895E0910A01F0910B019081809531
:1001000098239083E0910C01F0910D019081892357
:1001100080830895E0910C01F0910D012081982FCA
:10012000909592239083E0910A01F0910B019081C8
:10013000892B80830895E0910401F091050190815D
:10014000282F209592239083E0910601F0910701DA
:100150009081892B8083E0910201F09103018081DD
:10016000822380830895E0910601F09107012081A8
:10017000982F909592239083E0910401F0910501CE
:100180009081892B80830895E0910C01F0910D01FD
:100190009081611519F0892B8083089580958923BA
:1001A000FBCFE0910801F09109019081892390E053
:1001B00008950E944B0083E70E94570084E70E9445
:1001C000570081E60E94570082E70E94570084E7AB
:1001D0000E9457008DE00E9457008AE00E9457005D
:1001E0000E946000C82F0E9457008DE00E945700B7
:1001F0008AE00E945700C13799F7FFCFF894FFCFEC
:0E020000C0002600270028002300240025004F
:00000001FF
