:100000000C9434000C9451000C9451000C94510049
:100010000C9451000C9451000C9451000C9451001C
:100020000C9451000C9451000C9451000C9451000C
:100030000C9451000C9451000C9451000C945100FC
:100040000C9451000C9451000C9451000C945100EC
:100050000C9451000C9451000C9451000C945100DC
:100060000C9451000C94510011241FBECFEFD8E026
:10007000DEBFCDBF11E0A0E0B1E0EAE8F2E002C0EF
:1000800005900D92A830B107D9F721E0A8E0B1E0C2
:1000900001C01D92A930B207E1F70E9400010C9443
:1000A00043010C940000E0910401F091050180816E
:1000B0008F7D8083E0910601F0910701808180624D
:1000C00080830895E0910201F09103018081002472
:1000D00085FF0394802D0895CF93C0910801C11529
:1000E00029F00E94620091E0C82FC9270E94620097
:1000F000809308018C2FCF910895E0910401F09135
:100100000501808184608083E0910401F091050104
:100110008081877F80830895E0910601F091070137
:100120008081846080838DE08A95F1F7E0910601FB
:10013000F091070180818B7F80830895E091020117
:10014000F09103018081887090E008951F93CF9310
:10015000DF930E948C000E949E00892BE1F3C0E097
:10016000D0E011E00E949E00892B99F4CE01880F07
:10017000991F880F991F6AE370E00E941B01603885
:10018000710510F06FE770E0862FDF91CF911F911E
:100190000895812F8A95F1F72196E4CFE09100012F
:1001A000F0910101818188608183818180618183F7
:1001B00081818B7F818382818660828382818F733C
:1001C00082838281877F82838281877B828382810F
:1001D0008E7F8283158287E684830895E0910001F3
:1001E000F0910101908195FFFDCF86830895E09104
:1001F0000001F0910101808187FFFDCF8681089584
:100200000E94CE000E9453000E947D000E94A60022
:10021000C82F0E946C008795882787958C2B0E9499
:10022000EE002FE788E391E0215080409040E1F715
:1002300000C00000EBCF97FB072E16F4009407D008
:1002400077FD09D00E942F0107FC05D03EF4909560
:1002500081959F4F0895709561957F4F0895AA1BD2
:10026000BB1B51E107C0AA1FBB1FA617B70710F0A1
:10027000A61BB70B881F991F5A95A9F780959095D3
:0A028000BC01CD010895F894FFCFF2
:08028A00C00026002700280037
:00000001FF
